:020000041000EA
:1000000000B5324B212058609868022188439860DF
:10001000D860186158612E4B002199600221596106
:100020000121F02299502B49196001219960352056
:1000300000F044F80222904214D00621196600F024
:1000400034F8196E01211966002018661A6600F04E
:100050002CF8196E196E196E052000F02FF8012189
:100060000842F9D1002199601B49196000215960AB
:100070001A491B48016001219960EB211966A021F2
:10008000196600F012F800219960164914480160C1
:100090000121996001BC002800D000471248134993
:1000A000086003C880F30888084703B5996A0420EC
:1000B0000142FBD001200142F8D103BD02B5186610
:1000C0001866FFF7F2FF186E186E02BD00000240BE
:1000D000000000180000070000035F00212200005C
:1000E000F4000018222000A00001001008ED00E03C
:1000F00000000000000000000000000074B24E7A12
:1001000000200420F7010010CB010010CD010010E9
:10011000C9010010C9010010C9010010C901001077
:10012000C9010010C9010010C9010010CF01001061
:10013000C9010010C9010010D1010010D301001045
:10014000C1010010C1010010C1010010C101001067
:10015000C1010010C1010010C1010010C101001057
:10016000C1010010C1010010C1010010C101001047
:10017000C1010010C1010010C1010010C101001037
:10018000C1010010C1010010C1010010C101001027
:10019000C1010010C1010010C1010010C101001017
:1001A000C1010010C1010010C1010010C101001007
:1001B000C1010010C1010010C1010010C1010010F7
:1001C000EFF30580103800BE00BE00BE00BE00BECA
:1001D00000BE00BEF2EB8871744800109448001015
:1001E0003802001090A31AE71E481F49086006C88D
:1001F00081F3088810471D480068002801D019487D
:10020000F3E70DA40ECC002902D000F012F8F9E7B4
:100210001749184A002000E001C19142FCD116495B
:100220008847164988471649884700BEFDE701C937
:1002300001C29A42FBD3704794480010C0000020CE
:1002400030040020044C00100000042000000420B2
:10025000044C0010001004200010042000000000D6
:10026000704700000000000008ED00E0000000D032
:1002700030040020900D00200D3D001001060010FC
:10028000053D0010F8B5C04606480749091A8B100D
:10029000C90FC91810B5491003D0044B002B00D06A
:1002A000984710BD300400203004002000000000FA
:1002B000054B10B5002B03D00449054800E000BFF2
:1002C000FFF7E2FF10BDC04600000000440C002014
:1002D000F844001010B50221052000F07BFAE1215E
:1002E0000F4C4902200001F0A1F800230122200058
:1002F000082101F02BF92000002101F063F91520FD
:10030000084900F0F9FA0121152000F0E3FA502322
:10031000A363626B183B1340034A136010BDC046D1
:1003200000800340CD0600103490034070B5C589AD
:1003300043680135ADB20400C581042B07D8434A98
:100340009B00D3589F463423C154303B4360608B9D
:10035000401B43425841C0B270BD2423C25C002AF6
:1003600042D1C28C89180122C184C254EFE708002F
:1003700001F0DCFF364901F0D2FF0123A062636087
:10038000E5E7037F002B56D1C38BCB18C383012332
:10039000037701334360DAE72022835C002B4FD1DF
:1003A000438C458BCB1898B201236084A35401F091
:1003B000BDFF284901F0B3FF0321E062E063681F3D
:1003C00001F0D4FB05042D0C280001F0AFFF011C47
:1003D000214801F090FF29002063204803F0ECFE43
:1003E0000323E5896360B2E700220802E084E25457
:1003F00001F09CFF1A4901F092FFA063242000F055
:1004000035F94C2000F032F93423E05C00F02EF98D
:10041000A06B00F02FF9E06B00F02CF9114AE06BB3
:100420001368216B0133136001F062FF0323E58938
:10043000E06363608BE700230902C183037786E7EB
:10044000002309024184835481E7C046E845001037
:10045000CDCC4C3D0AD7233C0000B441F8440010F9
:100460006F128339B40A0020F0B583B06B464E4C4E
:100470004E4EDD1D280000F06DF900281FD02368C6
:100480002978072B60D062898A186281A28901329B
:10049000A281082BEED89B00F3589F46E389080001
:1004A0000133E38101F042FF414901F038FFA062CE
:1004B00007232800236000F04DF90028DFD100F069
:1004C00063F93C4D04002B88834204D021003A4854
:1004D00003F072FE2C8003B0F0BD2000FFF726FF72
:1004E0000028C7D0E4E7237E002B44D1628B8A1812
:1004F000628301222276227A002A39D06360E38166
:1005000006232360B6E7AD2944D0AE2947D00523A2
:100510002360AFE704232360ACE703232360A9E74C
:10052000237D002B2CD1E38ACB18E3820123237592
:10053000013323609EE7242000F098F8542000F057
:1005400095F80123236095E7277C002F1DD1638A4E
:10055000A06AC91801236182237401F009FF020017
:100560000B00164803F028FE2760A781678181E70A
:10057000082323607EE7002309026183237679E75D
:1005800000230902E182237574E7002309026182D6
:1005900023746FE701232372052323606AE7002396
:1005A00023720523236065E7F80B0020FC4500104B
:1005B000CDCC4C3D8A0D00200C45001000450010AC
:1005C0000D4B1A68511C1960002A13D101212020FB
:1005D0000A4B19540430197419751976197719547E
:1005E00000211A605A601A725A81DA6099621A649C
:1005F0005A649A647047C046B0060020F80B002089
:1006000010B500F02FF8FA20800000F0ABFD044890
:1006100003F04EFDFFF75EFEFFF726FFFCE7C04646
:10062000244500100D4B1A68511C1960002A13D183
:10063000012120200A4B19540430197419751976B8
:100640001977195400211A605A601A725A81DA60B7
:1006500099621A645A649A647047C046B0060020D2
:10066000F80B002010B500F019F810BD10B503F01C
:1006700073FC10BD70B50604360E040E0502C0B240
:1006800003F06AFC30002D0E03F066FC280003F036
:1006900063FC200003F060FC70BDC04610B5022171
:1006A000002000F097F80221012000F093F80021CB
:1006B000054800F087FF0123E121002202485B4248
:1006C000090303F053FE10BD00400340F0B5CE46D1
:1006D00047461B4A80B59369DB0622D4194B10218B
:1006E0009C461B881848994600239846174C184E7C
:1006F00093691942FCD115680388278801339B054B
:10070000EDB29B0DBB4210D00788BFB2F5550380F8
:1007100093691942ECD04346002B02D063464A4607
:100720001A80C0BCB946B046F0BD4D460135ABB2EB
:10073000994693691942F1D101239846D8E7C046FA
:1007400000800340840D0020860D0020880D0020CD
:10075000B4060020094A0A4B11881B8899420BD025
:10076000138808499BB2CB5C0370012013880133C6
:100770009B059B0D138070470020FCE7880D00202F
:10078000860D0020B4060020014B18887047C04633
:10079000840D00200D4B1A68511C1960002A13D1DA
:1007A000012120200A4B1954043019741975197647
:1007B0001977195400211A605A601A725A81DA6046
:1007C00099621A645A649A647047C046B006002061
:1007D000F80B0020094A83009A1810B514684022CB
:1007E000544080322240064CC000A44663441A6044
:1007F000044B9C466044416010BDC04604C00140AB
:1008000004D00140004001400FB400B5084883B057
:1008100003F04EFC049B002B07D005A918000191A2
:1008200003F056FA034803F043FC012003F068FA92
:10083000384500102045001070B5EFF3108C72B6EB
:100840000D4D2B68002BFCD0BFF35F8F0724CB0826
:10085000C618C05C01230C40A3401C0004400342A6
:1008600007D118433070BFF35F8F2C608CF3108872
:1008700070BD1000FFF7C8FF2C0100D0044A1078AB
:10088000431CDBB2172B00D9102313707047C046EE
:10089000880300200021044B044ABFF35F8F02C38A
:1008A0009342FAD17047C046000100D0800100D0C9
:1008B000054B064A1360064A136053609360D36089
:1008C00013615361936170478080808000E400E091
:1008D00004E400E01F2318401E3B8340002905D09C
:1008E000C021044A490053501360704780220149D7
:1008F0008B50FAE700E100E070B50D00EFF31086D1
:1009000072B60F4A1368002BFCD0BFF35F8F0D4BFC
:1009100010309B6884001B590B4A934203D09D42C0
:1009200001D000F0F9FF074B9B681D51BFF35F8FAB
:10093000BFF35F8F0022024B1A6086F3108870BDF0
:10094000240100D000ED00E0C1010010F0B5DE464A
:1009500057464E464546E0B50C0083B0EFF310888D
:1009600072B6634A1368002BFCD0BFF35F8F614BF4
:1009700061499A68030010339F00D55901938D4255
:1009800043D0A54254D05D4EAA1B2F2A3DD85C4BC4
:100990009B461B68994601231A009C4682404B46A1
:1009A00013401F2299466346024093409A46802294
:1009B0005B4650469850BFF35F8FEFF305839B462D
:1009C000002B37D0019B5B4501D000F0A5FF012330
:1009D0002A009A439068844208D176E04B005B1865
:1009E0009B00F3189868844236D01A0006215156AD
:1009F0000029F3DA844254D04B46002B27D0C02282
:100A000051463F4B5200995019603A4B9B68DD515B
:100A1000BFF35F8FBFF35F8F0022354B1A6088F3FF
:100A2000108803B0F0BCBB46B246A946A046F0BD54
:100A30000D00EAE72A0063469A4390688442D5D1C4
:100A400006201056130000280ADA0D0031E080233A
:100A500051462B4AD150D8E706201856002821DBF2
:100A600042001118890074188B46A1689960E179D9
:100A7000D971062161569971002924DBA488F11AE5
:100A8000640524155C44091909051E4C490D2143D0
:100A9000998013181C4A9B001178F31899711070F3
:100AA000AAE713005946002914D1FF319171174963
:100AB000918015490A789A71154A9B1B5B415A43EC
:100AC000120D0A7098E71149E2E70620105613004C
:100AD0000028C5DA0F4A1049D21A083A5002400DD0
:100AE000014399800D4952080A43DA8084E7C046E1
:100AF000240100D000ED00E0C10100108C030020B3
:100B000000E100E000E0FFFF8D0D002001BDFFFFD0
:100B1000AAAA0000C603002000F0FFFF00F8FFFFB4
:100B200070B501240443EFF30581EFF3108C72B626
:100B3000214A1368002BFCD0BFF35F8F1F4B0500C9
:100B40001F4AED1A6D416A43120D1E4D8900AE68B1
:100B500052B27658A6421CD00621595691421CD05A
:100B600012215956914222D01E215956914220D02D
:100B70002A2159560324914210D0134B19781A7028
:100B80008171BFF35F8F00220B4B1A608CF31088CA
:100B900070BDAB680D4C5C50EFE700246100091993
:100BA00089005B18FF21997109499980E5E70124C3
:100BB000F4E70224F2E7C046240100D08C030020B1
:100BC000AAAA000000ED00E08D0D0020C101001078
:100BD00001BDFFFF024B9C466144890001607047E4
:100BE0004000003470B5114C114DAC420FD2FF26BD
:100BF0002368002B0CD0FFF741FE01002000FFF717
:100C0000E9FFA680BFF35F8F0834AC42F0D370BD1C
:100C1000FFF734FE01002000FFF7DCFF2671BFF371
:100C20005F8F0834AC42E3D3F1E7C04628040020CC
:100C3000300400200A4B1968EFF3108072B60A687E
:100C4000002AFCD0BFF35F8F1B68BFF35F8F0022C9
:100C50001A6080F3108840BF002000217047C04612
:100C6000780D0020F0B5DE4657464E464546E0B5C5
:100C700087B0EFF30583032201251A4095409100C8
:100C80008846A946B34B03925C58B34B1D60B34BE7
:100C900004934B46B24843630823E55E002D37DAE0
:100CA000A3881BB2002B00DBADE0A379002B00D0A2
:100CB000EEE00823E05E002820DB430062691B1899
:100CC000DB00D3189E68DD68731C00D111E1A448D5
:100CD00001004144826A0B69B71A9B1A9F4215D3DF
:100CE0000123026A039883401A420FD09C4800F007
:100CF00047FB8D4202DCCCD18642CAD940BF07B047
:100D0000F0BCBB46B246A946A046F0BD0E61EDE779
:100D100062696B0092465B19DB009A4453469E68F9
:100D2000DF6800F02DFB8F42BADC00D103E1002F19
:100D300000DAE8E05246534652691B699346049A2A
:100D4000934200D1D9E052460821605E52880004E7
:100D5000594610439847009001910099019A0B0061
:100D60001000134300D1CEE013000A00B61A9F41D1
:100D7000002806DB7A4800F003FB009E019F36182E
:100D80004F4153469E60DF6000229A5E002A00DADF
:100D900086E7530099186069C900411802938B686F
:100DA000C9689B46B94200DD7AE702D1B34200D957
:100DB00076E708239C46A444059565462281A4460F
:100DC000029B2C0006E053009918C90041188D6859
:100DD000C968AB469B18DB00C318B94206DC00D1DA
:100DE000B3E01C000023E25E002AECDA2300644634
:100DF0009C4653461A806346059D1D80A3881BB2FE
:100E0000002B00DA51E72269EFF3108172B6136804
:100E1000002BFCD0BFF35F8F0123A7885B42A38028
:100E20003FB22369BFF35F8F00221A6081F31088FD
:100E3000002F00DA39E72300083322009A4666695A
:100E40007B00DB19DB00F318996850468C460824B8
:100E5000115FDD68002910DB029306E0AB4244D04D
:100E60000023E15E2000002906DB4C006418E4004A
:100E70003419E368AB42F1DD029B078000201F5E5E
:100E80001980002FDCDA1400A379002B00D110E7C1
:100E90000023A37126000823E15E08364B1C00D115
:100EA0002CE70800A246656902E03E004B1C1AD000
:100EB0004B005B18DB00EF180A008C46E95E7B886C
:100EC0001BB2002BF1DA01235B42DC17BB60FC6034
:100ED000824205D0534631801B893B8053461A819C
:100EE00060464B1CE4D15446E5E6A3686345B7D998
:100EF000C2E76B1C00D0EAE6F8E65B4658461B6981
:100F0000984700281BD153461B8822692381EFF3A1
:100F1000108372B611680029FCD0BFF35F8F514671
:100F200062880A8022696580BFF35F8F00211160AB
:100F300083F31088B4E6864200D8F8E6B0E65B4654
:100F40001A685B680092019307E7B34500D848E749
:100F50004CE7C0465C0C00203C700540650C00105E
:100F60000040054070B52E4C2569002D04D00A21A3
:100F70002C48FFF72FFE70BD2B4E0321300000F0F0
:100F8000F5F9E660FFF77AFC284B03229C46D02354
:100F900022701B061B6801216370254B6044A3600F
:100FA0000F23800020610220638063694942A18091
:100FB00019800231198647311D83585218315A520F
:100FC00075325C3999521832013199521832013117
:100FD0009952183201319952083518329D52023116
:100FE00018329952183201319952183201319952FE
:100FF00018320131995218320131995218320131A7
:1010000099520C4B0C49DC6001303562FFF774FCDF
:1010100001210320FFF75EFC084B1D60A7E7C046D7
:10102000D4030020780D002000400540400000342B
:10103000FFFF10005C0C0020650C001038600540BC
:1010400070B501000469EFF3108C72B620680028B7
:10105000FCD0BFF35F8F02200D5E4C696800401921
:10106000C00024180869002D36DB26884E80BFF3A7
:101070005F8F002606608CF31088E3606388049815
:10108000013320615B0405985B0CA26060611A1C4F
:10109000002B1FD093B22804628018430A69EFF333
:1010A000108C72B61368002BFCD0BFF35F8F8B8857
:1010B00023808D800B69BFF35F8F00221A608CF351
:1010C00010880B7801329A40CB6808498C466344FB
:1010D0001A6070BD0122DDE7BFF35F8F002303605C
:1010E0008CF3108801204042F3E7C0463C2000000A
:1010F00010B543890A1493421ADD53009B184269C4
:10110000DB00D3180469EFF3108C72B62268002A52
:10111000FCD0BFF35F8F5A88090494B2090C8A424D
:1011200008D00369BFF35F8F00221A608CF3108828
:10113000002010BD8022120214435C80012302694A
:101140008371BFF35F8F002111608CF31088044915
:1011500002788C469340C268012062441360E8E73D
:101160003C200000F0B5C64600B582B0040000F097
:101170000FF9FA2206000F00200000230021920040
:1011800001F096F88019794104000D1E02DA01245D
:101190002E4D644206267642F71736196F41AF424C
:1011A00014D811D000F0F4F832003B00121A8B4131
:1011B000002B15DC002B46D02000290000F026F97A
:1011C00002B080BCB846F0BDA642EBD9002600278D
:1011D00000F0DEF832003B00121A8B41002BE9DDF3
:1011E00000F0D6F832003B00121A8B41002B0ADBCC
:1011F00000230193164B3200009316483B00FFF783
:101200001FFF0130D8D000233900B0469C46124A57
:101210001248536A994204D8966A4645CCD29942FC
:10122000CAD10668EFF3108772B63368002BFCD082
:10123000BFF35F8F0368BFF35F8F66461E6087F35F
:10124000108820BFE5E7002AB6D0C9E7FFFFFF7F7F
:10125000350C0010D403002000400540780D00201C
:10126000F0B557464E46DE464546E0B506000F004F
:1012700085B0EFF3058399468B46002B12D0384991
:1012800000204B6ABB4206D38A6ADB1B591E8B4186
:10129000B2424041184305B0F0BCBB46B246A94635
:1012A000A046F0BD2F4B9A46DB68984653461B7804
:1012B0004046039300F064F84246039B0400043365
:1012C0009B009B580D001B1A39003000001BA941E0
:1012D000894510DC0DD020BF214A0020536A5B45B0
:1012E000D9D3926ADB1B591E8B41B242404118434D
:1012F000D1E78342EFD900F04BF832003B00121ADD
:101300008B41002B1ADB00230193174B3200009313
:1013100050463B00FFF794FE011E0FDD104B5A6A4A
:101320005A451BD39B6AB34216D35046FFF7E0FEE3
:101330000B4A0020536A5B45ADD3D2E7084A002030
:10134000536A5B45A7D30020926ADB1BB24240413F
:101350005A1E934118439EE75A45E6D120BFE4E761
:1013600000400540D4030020350C001010B5024A9F
:101370000248FFF761FA10BD48450010C00B00207D
:101380000300416A0A00986A596A8A42FAD1704792
:10139000034B596A0A00986A596A9142FAD1704718
:1013A0000040054070B504000D00174A536A19004B
:1013B000966A536A8B42FAD13000190024184D41C5
:1013C000AB4216D813D0104B2A005B6A9D4203D95A
:1013D0000D494B6A9342FCD3934207D10A4A02E07B
:1013E000516A994202D1916AA142F9D370BDA642D5
:1013F000E9D9054B5B6A1C005A1CEFD0012201247D
:101400006442E5175242E3E700400540064A536A4A
:101410009942FCD807D1044B02E05A6A914202D1AA
:101420009A6A9042F9D8704700400540F8B5040028
:1014300006200D0000F0C8F9002844D0374B384989
:10144000E3185A1E93418022120494465B429B0D7E
:10145000344A9B0563441360334A136018000A68DA
:101460009043FBD12D4B314AE31859424B41802127
:101470005B0049000620995200F0A6F92900C0003F
:1014800000F09CFB0130C3091ED14027012262629B
:10149000A362266BF30722D4E36A254B0620E518E6
:1014A00000232B60266300F08FF93900800000F0E4
:1014B00085FB7023E26A5A400E3313402B601D4BAC
:1014C00023630323A364F8BD1B4A93421ED9002360
:1014D0001A4A1B4F6262A362266BF307DCD5194BD5
:1014E000144AE3181A60656AA36A0620AD01ED1874
:1014F00000F06AF9144900F061FBAD020100280018
:1015000000F05CFB0021FFF74DFFC5E74006800EB1
:101510009F011A003F180300B9E7C0460080FCBFD6
:1015200008C0004000E0004000F000407C0D0020BA
:101530002C10000001030000FEFF0000FFFF000070
:10154000C0FF3F00303000004E0E00000539013A68
:10155000F8B5D2004C0105001443002B06D0013B26
:101560005A4253419B00234302241C432E6BF30732
:1015700008D46E23EA6A624013400E4AAA18136028
:101580002E63F8BD0C4B0D4AEB181A606F6AAB6AFC
:101590000620BF01FF1800F017F9094900F00EFB03
:1015A000BF020100380000F009FB0021FFF7FAFE3E
:1015B000DFE7C0462C1000003030000001030000BF
:1015C0004E0E0000074A4B42594194464B4260443C
:1015D000F621424250411940034B0A314000C152AA
:1015E0007047C0460080FCBF7C0D0020F8B5DE4689
:1015F0004E4657464546E0B58B4605000A99180009
:10160000160000F0DBFA0A9B6C001F02324B6419D3
:101610009C46A4006444636881469F4200D9676089
:101620002B1FDBB29846012B30D9C02380229B01AF
:10163000E31812011A60294BAD0059599A46002946
:101640001BD17301E026226853401E40802342468E
:101650005B01E3181E60012A30D9802380229B01A0
:10166000E31812011A6053464A4667605A51F0BCAB
:10167000BB46B246A946A046F8BD586900F09EFA9E
:10168000013043001B18033BFDD2DAE75B46012B18
:10169000CBD1C02303229B01E3181A60023AA3684E
:1016A0001A42FCD07301E0262268AD0053401E4070
:1016B00080230A4A5B019246E3181E605A4621685D
:1016C000514003220A401A6001225B469A40A368F7
:1016D0001A42FCD0C1E7C04600800040C40B002085
:1016E000F0B546464F46D646C0B51F00344B4400C1
:1016F0009C462418A4006444636888461600FF2BA7
:1017000002D880235B006360031FDBB29A46012B83
:1017100030D9C02380229B01E31812011A60294BA3
:1017200085005959994600291BD17301E02622688A
:1017300053401E40802352465B01E3181E60012A7D
:1017400030D9802380229B01E31812011A60802384
:101750005B0063604B465F51E0BCBA46B146A846A9
:10176000F0BD586900F02AFA013043001B18033B12
:10177000FDD2DAE74346012BCBD1C02303229B01E4
:10178000E3181A60023AA3681A42FCD07301E026FB
:101790002268850053401E4080230A4A5B0191461F
:1017A000E3181E6042462168514003220A401A6035
:1017B000012342469340A2681342FCD0C1E7C046D1
:1017C00000800040C40B0020014B8000C0587047CF
:1017D000C40B0020F8B5040021481E0017000D00BE
:1017E00000F0ECF90100380000F0E8F9069B36043F
:1017F0001B031E432368002B20DB1A4B1A49E318F6
:101800005A1E93418022920194465B421B0B174A59
:101810001B0363441360164A13601F000A68974352
:10182000FBD1144B2560E2182123A06013602368CC
:10183000002BFCDA0823E6601360F8BD3F23226822
:101840001340AB42D9D1A3681B051B0D8342D4D1F1
:10185000EE22E368D2021340B342CED1EDE7C04698
:10186000001BB7000040FDBF08C0004000E0004082
:1018700000F00040043000008023024A9B000B432C
:10188000D362704700800540002310B50100988A9C
:101890001B8B984710BDC046162310B50100188851
:1018A00002331B88984710BDF8B54746CE4680B531
:1018B0000F1E18D014239946043304000025012676
:1018C00098464B461888434621681B88984701C4B0
:1018D000431E984101350640AF42F2D13000C0BCF2
:1018E000B946B046F8BD0126F8E7C046AA23064A25
:1018F0001B0113608D235B00D3600449044B196006
:101900005368002BFCDA70470040024000B0FA0038
:10191000006002407047C04610B50148FEF774FFF2
:101920006C45001070B5074D074EB54209D2002432
:10193000013E761BB60808CD984723000134B34218
:10194000F9D170BDA8440010E4440010054B064ACC
:1019500006491A60064A074B1A6010000B68984344
:10196000FBD1704700E00040BFCDFBFE08C0004047
:10197000FE7F3C0000F00040044BDB6C002B03D1E9
:101980008022034BD2021A607047C04600001150FB
:101990004C201150044A054B1A60054A1368DB01BC
:1019A0008033FBD17047C046FFFFFF0100F00040CD
:1019B00008C000404022034B9A675A671A67DA66EC
:1019C0007047C04600F0014010B5FEF763FF10BD40
:1019D000F8B52749274C284D641AA6103200302E3E
:1019E00000D930222800920000F00AFDBC2C3BD820
:1019F00030202F232C196407204A801BE40F9B1BE7
:101A0000052B16D93700002C02D0B300771CEA5002
:101A1000001B33199B004108EB18C900C9181A6054
:101A20005A6008339942FAD1012303421CD09843EB
:101A3000C619B300EA50731C2F2E15D09B00EA5034
:101A4000B31C2E2E10D09B00EA50F31C2D2E0BD071
:101A50009B00EA50331D2C2E06D09B00EA50731DCC
:101A60002B2E01D09B00EA50054B9D60F8BDC0466F
:101A700000010010C001001000000020C101001092
:101A800000ED00E0002310B5294C82B0A367FFF7FA
:101A90002DFF0122274B1A60636C012BFCD103221E
:101AA000254B1A60224A936B012BFCD10133009322
:101AB0000121224A22480433FFF78CFE052301212D
:101AC0000093204A2048FFF785FE002202210420CF
:101AD0001E4BFFF705FE0022012105201C4BFFF7DE
:101AE000FFFD0022002107201A4BFFF7F9FD00221D
:101AF00000210820174BFFF7F3FD8023DB00009344
:101B0000002200210920134BFFF770FD0022104B2B
:101B100000210620FFF7E4FD0420FFF755FE0E49E3
:101B200000F04CF801000020FFF7A6FE02B010BD47
:101B3000008000403CB0004030B00040002F6859A9
:101B400000800240008C864700C00240001BB700A6
:101B500040597307006CDC0240420F000148042129
:101B6000014B1847F0030020A9180010124A936F88
:101B70009B0815D29066D166002905D0FFE7FFE7E4
:101B8000FFE7516F106F704704B580210906C21737
:101B90005140002800D0C84302F076FC002104BD6B
:101BA000F0B5146E556E576F166FFFF7E3FF1466AE
:101BB000556657671667F0BD000000D0114A936F55
:101BC0009B0813D210665166002905D0FFE7FFE796
:101BD000FFE7516F106F704704B5002801D0002057
:101BE000C04302F051FC002104BDC046F0B5146EA4
:101BF000556E576F166FFFF7E5FF1466556657670A
:101C00001667F0BD000000D094464A4A926F9208D1
:101C1000624601D228E0C046F0B5464E346E756E7D
:101C2000776F366F00F020F89446424A1466556686
:101C3000576716676246F0BD94463E4A926F920817
:101C4000624601D254E0C046F0B53A4E346E756E2D
:101C5000776F366F00F04CF89446364A1466556636
:101C6000576716676246F0BD002B24DB11D00029B0
:101C70003EDA00B5C943404200D1013100F038F8E6
:101C8000C943404200D10131DB43524200D101330C
:101C900000BD002AEBD1002801D1002905D0002089
:101CA000C90FC90701D1C043410800B502F0E4FBE8
:101CB0000022002300BD00B500290ADBDB435242AD
:101CC00000D1013300F014F8C943404200D1013182
:101CD00000BDC943404200D10131DB43524200D133
:101CE000013300F005F8DB43524200D1013300BD5F
:101CF000002923D1002B18D1002A0CD0BC460D4F4F
:101D000038667A6600210023FFE7FFE7FFE77A6F76
:101D1000386F67467047002801D00748010000B5BA
:101D200002F0AAFB0022002300BD02000B000020ED
:101D300000217047000000D0FFFFFFFF002B00D004
:101D4000BFE0130C28D1002AE7D080B4114F3966C8
:101D50007A66FFE7FFE730B4040C7B6F396F1B0432
:101D600023433B667A66FFE7FFE7FFE7C04684B29E
:101D70007B6F3D6F1B0423433B667A66FFE7FFE7FB
:101D8000C04600232C042D0C7A6F386F001969416E
:101D9000B0BC7047000000D0F0B594460025140E8A
:101DA00001D112020835140F01D112010435940F2C
:101DB00001D192000235D40F01D152000135D40B6C
:101DC0000134254F7C66254C3C660E0C93B2FFE730
:101DD000FFE7FFE73C6F6643360C7703BE4673436D
:101DE000DF0B5B04C01AB941130C7343DB18C91A2B
:101DF000CE086643360CB64493B273431F0F1B01E3
:101E0000C01AB941130C73431F0B1B05C01AB9410B
:101E1000860D8F023E436643360C092D24DB520AA1
:101E20007243801A7703460A6643360C16235B1BFF
:101E3000DE40DF40BF1964466643821B70460435AE
:101E400006330100D940A840C01900D30131A24295
:101E500006D20023F0BD0000000000D0FFFFFFFF0E
:101E6000121B0130F3D3F1E709277F1BFE406446C4
:101E7000A2B27243801A00D20139220C7243130CB1
:101E80001204821A99410B00704604351337010081
:101E9000F940A840801900D30131002B02D1A242A1
:101EA0000AD2F0BD013000D30131121BFAD2013B3E
:101EB000F8D1A24200D2F0BD013000D30131121B93
:101EC000F7E7F0B51C0C00D080E00CB400251C0A2C
:101ED00004D11B02160E3343120208351C0B04D129
:101EE0001B01160F3343120104359C0B04D19B00D8
:101EF000960F334392000235DC0B02D192185B41FE
:101F000001351C00971864410134464F7C66464CED
:101F10003C660E0CFFE7FFE7FFE7C0463C6F6643F9
:101F2000360C7703BE4697B27743C01B00D2013907
:101F3000C01B00D201399FB27743C91BC91B170CC4
:101F400077437E04FF0B801BB941CE086643360CF5
:101F50000C2D33DBB644120B1F053A431B0B97B213
:101F60007743C01B00D201399FB27743C91B170CBE
:101F700077433E043F0C801BB941860D8F023E43E0
:101F8000664329277F1BFE400C3D7746AF40BF19B3
:101F900030BCA2B2ABB272437343801A9941220C97
:101FA0007243130C1204801A994102000B0001378E
:101FB000001BA941F9D2781E0021F0BD0C277F1B20
:101FC000FE4077467F0BAF40FF19E0E700245D1C21
:101FD00007D0144F7D663966FFE7FFE7FFE7FFE7AD
:101FE0003C6F95B29EB265436643401BB141150CF0
:101FF0001E0C6543664336042F0C3E432D04401BE4
:10200000B141994204D202000B0020000021F0BD32
:1020100001D19042F7D3801A994101349942F2D309
:10202000F6E70000000000D0FFFFFFFF48404140FE
:10203000484018B4134B5B68019308BD18B4114BAA
:102040001B68019308BD94460F4A926F920805D20F
:10205000624618B40B4BDB68019308BD0A4AF0B521
:10206000146E556E576F166F6246FFF7F2FF064A01
:102070001466556657671667F0BD18B4014B9B6828
:10208000019308BDB0050020000000D0FFB550400E
:102090004240504059404B40594000E0FFB5154F79
:1020A0004C00640D03D0BC4204D10C0314D80020B2
:1020B000090D09055C00640D03D0BC4204D11C036A
:1020C0000AD800221B0D1B0501264B4009D44B40AA
:1020D00003D58B4200D18242FFBD9942FCD1904290
:1020E000FFBD0B43DB1803431343F5D0C943491825
:1020F000FFBD0000FF07000000B5FFF7CFFF8041E4
:1021000000BDC04600B5FFF7C9FF01D9002000BDE2
:10211000012000BD00B5FFF7B9FF01D9002000BDC7
:10212000012000BD00B5FFF7B1FF804100BD0120D7
:1021300040054A00121804D85A00121801D800208D
:1021400070470120704700000021002805D170472A
:10215000C1174840401AFAD0C90713B5064B1B688F
:1021600098470CBC441CA2401005120B0349091BE4
:1021700009051943114310BD740C00201F04000011
:1021800010B54C00620D8023D218DB00D21A5B051B
:102190007E2A10DD9E3A13DACC1709034908194349
:1021A0005242D140640001341532202A05DAD04071
:1021B0000843604310BD002010BD0846604310BDB9
:1021C000C80FC018013810BD18B4024B5B6A0193E8
:1021D00008BD0000B005002010B50148FEF714FB53
:1021E00078450010132370B51D78012D19D014DD2A
:1021F0001D48FFF751FB06001C48FFF74DFB1C4C28
:1022000080223100200000F0FBF8022D06D0194892
:10221000FFF73AFB184B186070BD154C174BA364C1
:10222000F5E7174B124C23606360A360E360236102
:102230006361A361E36123626362A362E362236378
:102240006363A363E36323646364A364E364236558
:102250006365A365E36523666366A366E366236738
:102260006367A367E367D9E7534400005346000060
:10227000B00500204C330000740C002085220010B3
:10228000D921001007B5604601880A0A0230DF2A0A
:10229000FAD1C9B2820804D30288408800041043EE
:1022A00000E00068014A5050039007BDB0050020CF
:1022B00051434343C9188C46110C83B24B4310B4AD
:1022C000040C614392B280B2504362431C041B0C65
:1022D000001910BC59411304120CC018514161443B
:1022E000704700004840414048400E4B5B6818472B
:1022F0000C4B1B6818470C4A936F9B0802D2094B82
:10230000DB681847F0B5146E556E576F166FFFF700
:10231000F6FF054A1466556657671667F0BD014B10
:102320009B681847780C0020000000D0C10FC90737
:1023300000D54042002817D0F44603B40B4B1B686D
:10234000984706BC81409E384042803107D20B0638
:1023500007D04900490AC0051043084360470130CF
:10236000F8E7490A8902F5E770470000740C00207D
:10237000014BDB6F18470000780C002010B50148B6
:10238000FEF742FA08450010132310B510481C78D8
:10239000FFF782FA0100012C0AD003DD80220D48EC
:1023A00000F02EF80C48FFF76FFA0C4B186010BDC8
:1023B000084C5422200000F023F822000849803203
:1023C0002368002B00D1216004349442F8D1E9E75E
:1023D00053460000780C00204C330000740C0020A1
:1023E0007D23001001480421014B18470004002000
:1023F000A9180010014B1B681847000000040020BA
:10240000014B5B6818470000000400207047C0467D
:10241000F8B55746DE464E464546E0B599460A9B16
:1024200007009A460D9B884693460B9C9B073BD121
:102430000C9B9C423DD21E1B0B9415000C005E446D
:102440002A004B46013521002020B847B542F7D17C
:10245000A0460B9C002C20D0454636195346321B13
:10246000013C185D29004B46B847002CF6D12B00E3
:10247000350098460D9B9B070FD55B46EC1A0C9BCD
:10248000A3420AD9464698462A004B4631002020EE
:102490000134B84701354445F6D32800F0BCBB46AB
:1024A000B246A946A046F8BD16001500002CD3D1AF
:1024B000E0E716001500002CCED1EEE7F0B545465A
:1024C000DE4657464E46E0B585B09C4610AB1B78BD
:1024D000149F934698460F9C129E139DBB074CD4A5
:1024E000002D42D1B44248D201233B4099460E9B75
:1024F000013B9A46302304E0524601341355A6426C
:1025000001D9202CF8D14B46002B00D183E00E9B43
:10251000013B99463023A54205D82EE04A460134B6
:102520001355AC4229D0202CF8D1FB060CD57B05E5
:1025300054D4A64263D0A54261D0119B102B50D039
:10254000022B57D0202C32D1202301930E9B5A46C8
:102550000093039763460295FFF75AFF05B0F0BC5E
:10256000BB46B246A946A046F0BD01233B40994672
:1025700001233B422AD1B442B9D3FB061CD57B05CB
:10258000DBD4002CD5D1119B102B5BD0119B022BDF
:102590006BD0302301240E9A13704346002B10D1C8
:1025A0007B073ED52B260E9A631C1655CDE72300DC
:1025B000013430260E9AD654202CC5D04346002B29
:1025C000EED02D260E9A631C1655BEE74346002B0F
:1025D0002FD0013DB44200D289E798E7119B102B20
:1025E000B2D1BB0637D5202CAED058230E9A135546
:1025F0000134A7E7202CA7D02300013407E0631E95
:10260000012CC0D0119A102A31D0022AD1D16226D1
:102610000E9AD65496E7FB06CED57B0500D488E704
:102620008BE723003E0790D520260E9A01331655DE
:102630008BE70C233B405A1E9341ED1AB44200D263
:1026400055E764E7BB060ED478230E9A0224137074
:1026500030235370A1E7202C00D175E778230E9A20
:10266000135501346EE75823EFE76033EDE70E9A18
:10267000A61E91464E44BA0602D55822327098E7FB
:102680007822327095E7C04610B5002800D110BD01
:1026900001F0C4FCFBE7C0460B0010B5002802D0D7
:1026A00049681B68984710BDF0B55746DE464E4650
:1026B0004546E0B595B083460F00924698461E9A6F
:1026C0001F9B10001900209EFFF731FD002800D04D
:1026D000EAE11E981F990122C54B5242FFF70CFDFB
:1026E000002800D014E11E981F990122C14B5242CC
:1026F000FFF718FD002800D0E9E01E981F9900227E
:10270000BD4BFFF70FFD002800D0C8E01E981F99B1
:102710000022BA4BFFF7F0FC002800D0BFE01E9863
:102720001F9900220023FFF7E7FC002800D0E4E017
:1027300000230B93229B5B0500D406260024302344
:1027400007E0172106AA013452181355013E202C28
:1027500001D0092EF5D81E981F99FFF711FDA84B3F
:10276000F2009B181A685B68050008920993FFF74E
:10277000EFFC02000B001E981F99FFF75AFC089A05
:10278000099BFFF77AFC06900791FFF71DFD814634
:10279000FFF7DAFC02000B0006980799FFF749FCE7
:1027A0000022984B06900791FFF7BCFC002800D14F
:1027B0000DE101239C46E1444846FFF7C5FC0200B9
:1027C0000B0008980999FFF79DFC002802D0002310
:1027D00099460135002E00D1D9E006954D46B946FF
:1027E00014E006AA944617230A2163442800013402
:1027F0001F19FFF7E3F93031397028000A21013E33
:10280000FFF7DCF9092D00D817E10500202CE8D1ED
:102810004F46069D20240CAE06AA17239446634417
:1028200099465B46B34606930FE04B4628000A21C3
:102830000134E618FFF79AF93031280031700A2187
:10284000FFF794F9051E00D1E4E0202CEDD1069BA2
:102850005E469B460323229A1340012B18D1219BED
:10286000002B15D00B9B002B00D1FDE0219B013BE1
:102870002193202B0CD93023219A07E0172006A999
:10288000013409180B55944200D3CCE0202CF5D12B
:10289000229B01940393219B0096029322E0229BAA
:1028A00052460493219B3900039358461E9B1F9C5C
:1028B000029600930194434600F04AF90400200078
:1028C00015B0F0BCBB46B246A946A046F0BD229B5F
:1028D0005B070FD403224C4B22990192039121995B
:1028E000009302914346524639005846FFF790FD47
:1028F0000400E4E70422454BEEE71E9A1F9B0020EC
:102900000021FFF796FB01231E901F910B9311E707
:10291000229B54469B0711D1219B042B0ED9219B4E
:1029200055469C465E46043C64442A0043460135B5
:1029300039002020B047A542F7D1B346344D2600D8
:102940002B1F99465B46A3461C003200E87843469D
:102950003900013DA04701364D45F6D123005C46C4
:102960009B46229B04349B07A9D55346219AE31A20
:102970009A42A4D95E461500220043463900202021
:10298000B04753460134E31A9D42F5D897E7280033
:10299000FFF7DEFB02000B001E981F99FFF749FBB3
:1029A0000022184B06900791FFF7A6FB0CAE0028FB
:1029B00000D031E7069807990022124BFFF7B2FBCF
:1029C000002800D028E7012301359D4324E7002299
:1029D000069807990B4BFFF78FFB002800D0F9E60C
:1029E0004B46002B5CD101239C46E144F2E6C046F5
:1029F000FFFFEFFFFFFFEF7F65CDCD4165CDCDC17F
:102A0000204800100000E03FD8450010D0450010DD
:102A1000E0450010069B5E469B460323229A134026
:102A2000012B00D181E0202C00D131E70B9B002B42
:102A300027D02D23335501342AE74F46069D202CFD
:102A400000D1E7E63022331907E0172006A9013448
:102A500009180A55202C00D1DCE6A342F5D12E221C
:102A60000CAE0134F254D7E60C23229A134257D00D
:102A7000219B013B2193A34200D9FCE6202C00D1ED
:102A800006E7229B5B0703D52B2333550134FFE672
:102A9000229B1B0700D4FBE6202333550134F7E6C5
:102AA000DB0700D496E69EE7229B55469B0711D193
:102AB000219B032B0ED9219B54469C465E46033D29
:102AC000654422004346013439002020B047AC421F
:102AD000F7D1B346B9465F461C4EEC1C2A00B078CD
:102AE000434649460135B847013EAC42F6D1229BE8
:102AF000BB464F469B0700D4E1E65346219AE31AB2
:102B00009A4200D8DBE65E461500220043463900B3
:102B10002020B04753460134E31AAB42F5D3CEE64A
:102B2000219BA34200D9A6E6B2E6219B002B00D14F
:102B300079E70B9B002B97D0219B013B21939C4273
:102B400000D298E6202C00D073E7A1E6DC45001007
:102B5000F0B5DE4657464E464546E0B599B081464B
:102B60008B4692469846229A239B10001900FFF745
:102B7000DEFA002800D0CAE0229823990122824B75
:102B80005242FFF7CFFA002800D0C0E022982399E4
:102B900001227E4B5242FFF7AFFA002800D0B6E088
:102BA0002298239900220023FFF7A6FA002800D0DC
:102BB000C9E1229B239C08930994089809998023D2
:102BC000269ADB001A400D928022269C12011440A6
:102BD00022000B94269C07000E001C4200D0ADE0A2
:102BE0000B00034300D0D5E0002A00D00AE2220007
:102BF00006332493022313400C930223134200D084
:102C000002E2259B042B00D20FE2043B0B9300232E
:102C100004250A930022229823990023FFF76CFAD7
:102C2000002800D003E25A4B269A134004930B9BD2
:102C30000393249B0293089B099C0093019459469B
:102C4000434652464846FFF72FFD02002020269BB0
:102C50001F27034059424B415B421840531C0893C5
:102C6000594643464530C8470A9AD317D4185C40A2
:102C7000D30F0A936B1E0B9308AB9C460025674449
:102C800001E0202D0FD020000A21FEF797FF01352B
:102C90007E193031317020000A21FEF78FFF2600A7
:102CA0000400092EEDD8052306930B9B5946059386
:102CB000002304930A3303930A9B4846029310AB04
:102CC0000093089A43460195FFF7F8FB0C9B002BF5
:102CD0002DD05346C41A259BA34228D94D465F46A2
:102CE00081461E00534639001A19202043460134FC
:102CF000A847A642F6D8534648462599C21A01323B
:102D00000023914200D386E1013018180FE0269B82
:102D10000493259B0393249B0293229B239C009363
:102D200001944346524659464846FFF7BDFC19B048
:102D3000F0BCBB46B246A946A046F0BD01432BD12C
:102D40000B9B2200002B00D154E700230A93249B05
:102D50000A9A0024934200DD85E1229823990022FB
:102D60000023FFF7C9F9002800D035E1269B084A67
:102D700002941A408023DB0013430493259B0393A2
:102D8000089B099CCBE7C046FFFFEF7FFFFFEFFFEB
:102D9000FFF7FFFF06232493B44B70009C46400DC1
:102DA0006044FFF7D5F9B24AB24BFFF766F9B24A71
:102DB000B24BFFF743F93603B14B360B33430400F4
:102DC0000D00380019000022AE4BFFF732F9AE4A71
:102DD000AE4BFFF752F902000B0020002900FFF76D
:102DE0002DF9FFF7CDF90A90FFF7B2F9A84AA94BE0
:102DF00004000D00FFF741F90022A74BFFF71EF971
:102E0000FFF7BEF9A54A0600A54B20002900FFF7F1
:102E100034F9040030000D000C96FFF799F9A14A2F
:102E2000A14BFFF72AF902000B0020002900FFF751
:102E300000F902000B0006000F00FFF71EF9320038
:102E400004000D003B0030003900FFF7F7F80022C6
:102E50000E900F91954B20002900FFF7F4F8002207
:102E6000934BFFF7EBF802000B0020002900FFF75F
:102E7000EAF800228F4BFFF7E1F802000B00200078
:102E80002900FFF7E0F80D008021040032003B002C
:102E90000020C905FFF7CDF802000B002000290033
:102EA000FFF7CCF802000B000E980F99FFF7CBF854
:102EB0000022734BFFF7C2F87F4B0C9C9C46644486
:102EC00000222305FFF7D9F806000F0002000B00CF
:102ED00008980999FFF710F900280AD00A9B3000DA
:102EE000013B39000A930022714BFFF7ACF8060052
:102EF0000F000A9A330063323900C62A12D8022220
:102F00002698042510400B9A0C90002A25D1259B69
:102F1000042B05D9002800D0A1E0259B043B0B938E
:102F2000042541E00222269810400B9A0C90002ABA
:102F300012D1259B052B76D9002872D1259B05251A
:102F4000053B0B9334E0802212069446229B0893A3
:102F5000239B6344099330E605250B4300D1F6E635
:102F600008980999554A564BFFF7D4F8002808D01D
:102F7000089809990022534BFFF7BEF8002800D0AB
:102F8000E5E6249B002B1CD00D9B002B19D0249B25
:102F9000013B2493259BAB4204D90C9B002B5AD0B8
:102FA00002230C9300230B930A9B002B00D131E6E4
:102FB0000898099932003B00FFF745F808900991FD
:102FC00028E6259BAB42EDD90C9B002B43D0002378
:102FD0000B9302330C93E7E78020269B3A4A0006C6
:102FE0001A40802384460294089C099D2900DB0036
:102FF00013430493259B6144220003930B0000922A
:1030000001938EE60524A8E600230B930A9302336E
:1030100004250C93FEE553468C46013B63441B1A82
:1030200072E602230C930525C2E70423EDE5802018
:10303000089E099F000639008446269A224B614467
:10304000134004930B9B32000393249B02930B00C9
:1030500000920193F3E5259B5B1B0B93A4E70223EE
:1030600004250C93A0E79C1A013C76E601FCFFFFC7
:10307000FB799F501344D33FB3C8608B288AC63F67
:103080000000F03F0000F83F61436F63A787D23F25
:1030900071A379094F930A400000E03F1655B5BB74
:1030A000B16B0240EF39FAFE422EE63F00002C40A1
:1030B0000000244000001840FF0300002D431CEBDB
:1030C000E2361A3F80842E41FFF7FFFFF0B5DE465F
:1030D00057464E464546E0B5A5B01E002E9B92468B
:1030E0000C93CD4ACD4B80468B461A60002900D107
:1030F000EAE1002330789946002800D1ECE1C84B82
:103100004C460B93C74B454657460E930AE0631C4B
:10311000984622003B005946A8474446307800288C
:1031200000D187E001362528F1D108239A46043BD7
:103130009946023B9846013B00229C460D9430780C
:10314000711C0300203BDBB2102B03D80B9C9B00AF
:10315000E3589F460300303B89460D9C092B3AD922
:10316000002398462A2800D1C1E000239A462E2841
:103170004BD00300683BDBB2122B1ED80E999B008C
:10318000CB589F4663460E001A43D8E743460E00CD
:103190001A43D4E74B460E001A43D0E710230E0023
:1031A0001A43CCE753460E001A43C8E780235B005E
:1031B0001A43FF3B9C467078E1444E4667284FD83F
:1031C0002428A4D90300253BDBB2422B9FD8964983
:1031D0009B00CB589F46002394461E0000E001311F
:1031E000B3009B195B001E180878303E0300303B8B
:1031F000092BF4D90123624689469C460023B04638
:103200009A460E00E1442E28B3D130218020494255
:103210008C46C000024370784B46844461460929BD
:1032200000D86CE12A2800D17AE101239C464E4661
:10323000E1449EE7A146A846BA46CA4503D8012301
:103240005B425344994653464A4659460020C0477C
:10325000200025B0F0BCBB46B246A946A046F0BD52
:103260000300693BDBB20D930F2B00D94FE701211F
:1032700099408C466D49894661464B4619400F91ED
:10328000634649460B4200D028E10D9B0A2B3AD0F9
:10329000072B00D03BE70C9B190008C98846002B80
:1032A00000D14BE121200243914614A98C461F22F4
:1032B0000F2162448C4651460D950C91A246150093
:1032C0000F9902E020290CD0130064461C40200016
:1032D0003730092C00D80738013168541A090F2BF0
:1032E000F0D80C9B54460D9D9A460F9133E10C9BF0
:1032F00002CB8846002947DB0C9301239C4670785B
:103300004E46E14431E70C9B02CB14935346002B0D
:1033100000D138E19C4608780B000C908C440028C2
:1033200001D100F098FC89466146944603E05A7842
:103330000133002A01D08B42F9D1494662465B1A1B
:103340000C900F93530500D520E102231800104084
:103350000D90134200D1CBE30D930B1BB1469A465F
:103360005E460C9822003B003100A84753460134CA
:10337000185D0028F6D1B3464E460D9B002B00D0B9
:10338000C7E1149B0C93C9E60C9301239C46283893
:1033900049420243884670784E46E144E5E670783B
:1033A0006C2800D17FE180235B001A43FF3B9C46E1
:1033B000E14402E780239B001A4301239C46707876
:1033C000E144FAE67078682800D173E180231A435B
:1033D0007F3B9C46E144F0E6672800D103E14728A3
:1033E00000D15AE1452800D15AE104920721424612
:1033F0000C9B0392073352468B43190002920CC96F
:103400002800009201930C9122003B005946FFF7DF
:103410009FFB040082E6C046CD300010F40B002074
:1034200080460010C4460010104700104190000074
:10343000462800D1DBE00492072142460C9B039210
:10344000073352468B43190002920CC928000092A0
:1034500001930C9122003B005946FFF725F9040027
:103460005CE6631C984622003B0059462520A8478D
:10347000444653E60C9B04330D93631C9946920714
:1034800000D422E10C9B2200187859463B00A84743
:1034900043464444012B00D885E23300B8462E0051
:1034A0005F4625004C4699462200434601343900C8
:1034B0002020B047AC42F7D12C00BB463500474630
:1034C0004E460D9B0C9329E6DB4B30789846002343
:1034D0009946002800D012E60024AEE66F2800D1FD
:1034E00088E000D80BE31023782800D1CFE09A437E
:1034F0000A239C4600230F930A330D9380E056461F
:10350000B1008919490001330E181878303E0100C6
:1035100030390929F4D9B2461E000133994628E60C
:103520000C9B023602CB8A46C9435046C917084055
:1035300082460C933078731C99461AE610231000CB
:10354000984311331843814680201300C000034084
:10355000024200D1A9E64B46069308230593534641
:10356000049310230393002302930F9B22000193E3
:103570001CAB009359463B002800FEF79FFF4346D3
:1035800004000C93CAE501235B42C3E60F9B53453D
:1035900001D953460F930223180010400D90134297
:1035A00000D1B7E10D93D1460B1B9A463300A144DD
:1035B0002E0022004D460C98B9465F469B4608E017
:1035C0004B463900541CB0475346185D002877D04D
:1035D00022009542F4D15B46BB464F46A9463500D2
:1035E0004C461E00C9E680231B011A43FDE620233A
:1035F0001A4320E708239C4600230F9308330D93BA
:1036000080231100DB0019401A4200D116E10D237E
:103610009A431000802302009B001A401492184223
:1036200000D0C2E1802302005B001A4091460C9A50
:1036300004320F92184200D0B7E2430600D59FE152
:10364000030600D419E30C9B1B880993002B00D0C0
:10365000FCE110339843002900D1F7E1002399469B
:1036600043460593534604930D9B06900393002312
:10367000D2E0582808D0622867D102239C46002354
:103680000F9302330D93BBE720231A43103B9C4654
:1036900000230F9310330D93B2E780231B011A43CD
:1036A00020231A43A1E6C0239B001A43F31C99462A
:1036B000B07882E5C0231A43F31C9946B0787CE5C4
:1036C00035005E46BB464F4657E64346012B00D8C1
:1036D00063E1631E43449A463300B9462E005F46B9
:1036E00055469B46A24622004B4601343900202015
:1036F000B047AC42F7D135005E46BB464F46A146C7
:1037000054460C9B4A46187859463B004444A84707
:10371000D7E6A1460F9B984500D832E64444E41A08
:103720003300B8462E005F4625004C4699462200DD
:103730004346013439002020B047AC42F7D12C0079
:10374000BB46350047464E461BE680231000DB0093
:1037500018401A4200D10FE1112118008A430D923E
:103760000D9A802311009B0019408C461A4269D1A2
:10377000802311005B00194089460C9904310F9198
:103780001A4200D0CAE113005B0600D5F0E0130036
:103790001B0600D459E20C9B00229B5ED9175A18D5
:1037A0004A4092B2D90F0C91002B00D1F9E11000E0
:1037B00014AA944642461F23149252466344A846D4
:1037C00016944D460400B946B2461F00159201E01A
:1037D000202D0FD020000A21FEF7F0F901357E19C7
:1037E0003031317020000A21FEF7E8F9260004008C
:1037F000092EEDD8149B4F46A94645469846159B81
:1038000056469A46169C0D9B06934346059353468F
:1038100004930A2303930C9B02934B4601931CAB26
:103820002200009359463B002800FEF747FE0F9BFD
:1038300004000C9372E4C0460D2400100C239A433C
:103840001000E7E607220C9B0733934301329446AE
:103850009C4462460C920CCBD90F0F911100194376
:1038600000D191E0D9171391129151401091139901
:103870005940119110981199129A139B801A9941ED
:103880001090119114AA002394464246994614922E
:1038900052461F336344A846B24616944E46109CC7
:1038A000119DB94615921F0001E0202E10D0200076
:1038B00029000A220023FEF7BFF9013630322B001F
:1038C000BA550D0022000400002BEED1092AECD8D5
:1038D000149B1094119545469846159B4F46B1464A
:1038E00056469A46169C0D9B0693434605935346AF
:1038F00004930A2303930F9B02934B4601931CAB43
:103900002200009359463B002800FEF7D7FD040033
:10391000FFF704FC0F9B984500D8C1E18023DB0032
:103920000D9343460F9A1B199B1A994633002E009C
:103930004D46B9465F469B460C9122004B460134EA
:1039400039002020B047AC42F7D143460C990133EF
:103950000F930B7835000C935E46BB464F46002B09
:1039600000D10EE50D9B002B00D1F6E4002319E6F3
:103970000C9B1B781A0015E710239A430D92EFE673
:103980000C9B1B78099361E6002399460028AAD175
:10399000002200231092119374E70C9B22001878E8
:1039A00059463B00A8474C468BE50C9AFA3BFF3B37
:1039B00007329A430133994691444B460C9313685E
:1039C000526815921A4306D1103290430022099290
:1039D000002900D081E06122810600D54122D2B2C7
:1039E0000A9214AA91460A9A00210A3A149242466F
:1039F0001792524618925A460991B3461F311E003B
:103A00000F9B4944BA4619941A9500246746984674
:103A10008946159D16901B920AE03032D2B24B4671
:103A200001341A55A8454AD0202C4AD006000D0072
:103A30003A00002330002900FEF7FEF8D2B2092A2E
:103A4000EBD9149B9C466244D2B2E8E7612382061C
:103A500000D54123DBB20A3B0C93434614A91F2235
:103A60008C46159353466244A046B2464C4617977F
:103A7000A9461700099D0D9E1490169308E0303357
:103A8000DBB201343B55B5420ED3202C0CD00500DF
:103A900031002800FEF792F8CBB20929EFD90C9A31
:103AA00094466344DBB2ECE7159B4D46A146444681
:103AB0009846169B564614989A46179FD0E5B742EB
:103AC000B2D9179B57469846189B5E469A461B9B51
:103AD00009949B461698199C1A9D43460593534694
:103AE00004930D9B0690039300230293099B05E723
:103AF0000F9B984500D914E701330F932DE4102351
:103B0000110099430D91692800D0BAE0802310007C
:103B1000DB0018401A4200D122E61DE60C9B1B6810
:103B2000DA0F1100002B00D18CE0DA179818504002
:103B300014AA914642461F23149252464B44A04673
:103B4000A946169704006546B2461F000C911592CF
:103B500001E0202D0FD020000A21FEF72FF80135BB
:103B60007E193031317020000A21FEF727F8260037
:103B70000400092EEDD8149B444698460C9BAC4695
:103B80001900159B56464D469A46169F0D9B02916D
:103B9000069343460593534604930A2303936346CF
:103BA0003CE6002800D02EE602E60C9B1B689946F6
:103BB000002B03D110339843002938D161238206AA
:103BC00000D54123DBB20A3B0C9343461693534680
:103BD00014A91F228C4617932B006244A0464D4621
:103BE000B246189799461700149C0D9E159008E050
:103BF0003033DBB201343B55B5420ED3202C0CD010
:103C0000050031002800FDF7D9FFCBB20929EFD913
:103C10000C9A94466344DBB2ECE7169B149444463A
:103C20009846179B56464D469A461598189F434608
:103C30000593534604930D9B069003930023029330
:103C4000149BEBE50028A1D172E70C9B1B68D917E8
:103C50005A184A40A6E580231000DB0018409C4615
:103C60000F901A420FD00220030013400F9310420E
:103C700019D00023A1460F934CE50C9B1B680993B8
:103C8000E4E40A0034E40223180010400D901342CB
:103C900000D03EE54346002B00D042E6FFF771FB23
:103CA00001330F937FE463460D93F3E710B50C00E7
:103CB00084B00394012402A90290009303481300E6
:103CC0006242FFF703FA04B010BDC0469926001007
:103CD00010B5094A0300146884B0002C08D00122F2
:103CE00000910648524203A9A047012004B010BD2C
:103CF00000F0DEF90020F9E7F40B0020892600101F
:103D000000BEFDE710B5FFF7FBFFC04670B5FDF73D
:103D100009FE074D074EB54209D20024013E761B2D
:103D2000B60808CD984723000134B342F9D170BDDD
:103D3000E4440010F8440010030010B5080011001E
:103D40001B68984710BDC046F0B5C64600B5437D18
:103D500007000C001600002B46D0002A17DD0B7858
:103D60000A2B24D000239846012E13D001252900C8
:103D7000635C01350A2B26D0B542F8D1464509DCF3
:103D8000A419013C23780D3B5A4253413B7580BC3A
:103D9000B846F0BD4346E018A419F11A013C3B684F
:103DA000984723780D3B5A4253413B75EFE7037D1B
:103DB000002BD7D102210F483B689847012EDFD056
:103DC00001239846D2E7631E5B5C0D2BD4D0884557
:103DD00004DA4346C91AE0183B68984702210548AF
:103DE0003B68A8469847C7E703681100200098473A
:103DF000CDE7C04670480010F0B5C6460B68060017
:103E00000C0000B5802B06D05A1C2260E4182671E5
:103E100080BCB846F0BD0F4B1D68002D16D00B1DA1
:103E200098460D4F02E02D69002D0FD02B68002B16
:103E3000F9D03B68002B01D0AB42F4D128004146B9
:103E40002268FFF781FF2D69002DEFD101220023A9
:103E5000DBE7C046EC0B0020F00B0020F0B5454638
:103E6000DE464E465746E0B583B091461C0080467C
:103E70000D00FDF78DFA0023304A12184B41002B3C
:103E800002DA01222E4B52422E4908008A4600F0E7
:103E900003FB07006B1C03D1404600F0ABFA0500A2
:103EA000002C27D0284E294B1C68002C18D04B46DC
:103EB000002B21D1264B994602E02469002C0FD01B
:103EC0002368002BF9D04B461B68002B01D09C4285
:103ED000F3D120002A004146B0472469002CEFD1DD
:103EE000002F26D1280003B0F0BCBB46B246A9463D
:103EF000A046F0BD174ED6E7154B99460A239B46C0
:103F000002E02469002CEBD02368002BF9D04B464B
:103F10001B68002B01D0A342F3D12A0041462000A8
:103F2000B0476B465A462000DA71D91D0122B047CE
:103F3000E7E7504600F098FAD4E7C04640420F0049
:103F4000FFFFFF7F28040020493D0010EC0B0020FC
:103F5000F00B0020393D0010F0B5CE46474680B545
:103F600083B06B460600DD1D2870FDF711FA0023B3
:103F7000194A12184B41002B02DA0122174B524208
:103F800017490800884600F087FA164B81461C68DE
:103F9000002C14D0144F02E02469002C0FD02368A9
:103FA000002BF9D03B68002B01D09C42F4D12000BB
:103FB00001222900FFF7C0FE2469002CEFD14B46F7
:103FC000002B05D1300003B0C0BCB946B046F0BDEF
:103FD000404600F049FAF5E740420F00FFFFFF7F3F
:103FE00028040020EC0B0020F00B00200A4A136884
:103FF000002B05D10CE01A001B691032002B07D0F2
:104000008342F8D1002902D1186910601961704704
:104010000029FCD01060FAE7EC0B0020F0B5CE468A
:10402000474680B583B06B460600DD1D2870FDF75E
:10403000AFF90023194A12184B41002B02DA012272
:10404000174B524217490800884600F025FA164BD4
:1040500081461C68002C14D0144F02E02469002C07
:104060000FD02368002BF9D03B68002B01D09C4275
:10407000F4D1200001222900FFF766FE2469002CFC
:10408000EFD14B46002B05D1300003B0C0BCB94680
:10409000B046F0BD404600F0E7F9F5E740420F00BA
:1040A000FFFFFF7F28040020EC0B0020F00B002016
:1040B00070B5040000F09EF9012301000500012203
:1040C0002000FFF7CBFE084B1C68002C06D063686D
:1040D000002B05D098472469002CF8D1280070BD2A
:1040E0002469002CF3D1F9E7EC0B0020F0B5CE46A3
:1040F000474680B5A3B004000D00FDF749F9002341
:10410000274A12184B41002B02DA0122254B52425A
:10411000254E300000F0C0F9002322000193070073
:104120002B00224801A9FFF7C1FD214B804699468B
:104130001C68019B002B1AD0002C2FD01D4D02E0D3
:104140002469002C0FD02368002BF9D02B68002B9A
:1041500001D0A342F4D12000019A02A9FFF7F4FD97
:104160002469002CEFD14B461C6800230193002CDE
:1041700006D06368002B0BD098472469002CF8D137
:10418000002F07D1404623B0C0BCB946B046F0BDB1
:104190002469ECE7300000F067F9F3E70194EFE7FA
:1041A00040420F00FFFFFF7F28040020F93D001070
:1041B000EC0B0020F00B00200FB400B583B004A975
:1041C00001C90191FFF792FF03B008BC04B0184782
:1041D000F0B5002915DD0E4B0D271A680D4B0E4C5E
:1041E000D3185D426B41451820215B001E5F0478A7
:1041F000A64207D093691942FCD101301460A8424D
:10420000F5D1F0BD93691942FCD11760F2E7C046C1
:10421000800D00200080FCBF7C0D0020204B70B57D
:1042200004000D1E1E682ADD002010211D4B013CDC
:104230001A689369194214D1013093691942FCD16B
:10424000136823548542F4D1002E08D05023936381
:10425000516B183B0B4014498C4662441360280094
:1042600070BD002E08D050239363516B183B0B4058
:104270000D498C46624413600028F1D10CE0002EF9
:104280000AD05022074B1B689A63596B183A0A40B0
:1042900005498C4663441A6003204042E0E7C0466B
:1042A000B80B0020800D002034100000064B10B524
:1042B0001B68002B06D00021044A12689163044A4F
:1042C0001068984710BDC046B80B0020800D002034
:1042D000BC0B00200822034B19688B691A42FCD1E1
:1042E0007047C046800D0020F8B51A4F1A4B3A6847
:1042F0000500D31858424341184E14331C0033684C
:10430000002D02D0002B0FD0F8BD002BFCD00021D7
:1043100020009563FCF7DEFA20001149FCF716FB3C
:10432000104B35601D60EFE70E4B200019600C4903
:104330003560FCF7E1FA01212000FCF7CBFA5022AE
:104340003B689A63596B183A0A4007498C466344A4
:104350001A60D9E7800D00200080FCBFB80B002058
:10436000AD420010BC0B00203410000070B50C4EA4
:104370000D001C003060002A03DB02211000FCF756
:1043800029FA002C03DB02212000FCF723FA290084
:104390003068FDF74BF801210248FFF727FE70BD9A
:1043A000800D00201004002010B5024800F004F831
:1043B00010BDC0466C0C002010B588B004000D2262
:1043C00000216846FEF716F80D22002104A8FEF72A
:1043D00011F84B236A466846137004A90D2200F0B9
:1043E0003BF81521082220006944FEF709F808B0BF
:1043F00010BDC04610B583070AD00300032102E0B8
:1044000001330B4205D01A78002AF9D1181A10BDD1
:10441000030019680C4A0D4C8A188A4322420FD1B6
:104420005968094A04338A188A43224208D15968D4
:10443000054A04338A188A432242F1D000E001334E
:104440001A78002AFBD1E1E7FFFEFEFE8080808023
:10445000F8B5C0460000000001B40248844601BC23
:10446000604700BF3502002001B40248844601BC09
:10447000604700BF5901002001B40248844601BCD6
:10448000604700BF7103002001B40248844601BCAC
:10449000604700BF7103002001B40248844601BC9C
:1044A000604700BFC10000204D19001079190010AD
:1044B0005D1B0010E5230010E5210010892300108A
:1044C000851A001095190010B5190010C9190010AF
:1044D000E50B0010D1190010650F00101519001020
:1044E000B1080010A9430010B1020010C10500106E
:0844F0002506001095070010DD
:1044F8004E3A2025640A0000524F543A2025660A95
:10450800000000004F564552464C4F574544202561
:10451800642054494D4553210A000000526F7665C6
:1045280072205374617274696E672E2E2E0000001B
:104538000A2A2A2A2050414E4943202A2A2A0A00B8
:10454800486172647761726520616C61726D2025C3
:104558006420616C726561647920636C61696D6562
:1045680064000000486172642061737365727400AE
:104578006D697373696E6720646F75626C65206618
:10458800756E6374696F6E0052656C656173650062
:10459800626F6F74325F77323571303830000000E7
:1045A800302E3100322E322E300000007069636FD9
:1045B8005F770000726F7665725F77004A616E20E0
:1045C8003330203230323600666E692B000000002E
:1045D800666E69006E616E00666E692D00000000EF
:1045E8006E030010820300109803001046030010A9
:1045F8005A03001036050010200500101A05001097
:104608001405001006050010E6040010DA04001076
:10461800740400109C04001006005250D3F0754238
:104628009045001006005250E182887F984500109E
:10463800060052503ABCA911A84500100600525075
:10464800ABB36053AC45001006005250BBFF3CB6FC
:10465800B445001006005250861C0302BC450010E9
:10466800060052505422A29DC44500100500525025
:10467800DE65F468044C0010A431001054310010B9
:10468800543100109C310010543100105431001086
:1046980054310010543100105431001054310010BE
:1046A8005431001094310010543100108C31001036
:1046B800543100105431001084310010C4330010FC
:1046C800BA310010B4330010BA3100109E33001014
:1046D800BA310010BA310010BA310010BA310010E6
:1046E800BA310010BA310010BA310010AC310010E4
:1046F800BA310010BA310010BA310010BA310010C6
:10470800BA310010AC310010623400100E310010C4
:104718000E3100100E3100100E3100100E31001055
:104728000E3100100E3100100E3100100E31001045
:104738000E3100100E3100100E3100100E31001035
:104748000E3100100E3100100E3100100E31001025
:104758000E3100100E3100100E3100100E31001015
:104768000E3100100E3100100E3100100E31001005
:104778000E3100100E3100100E3100100E310010F5
:104788000E3100100E310010D833001030340010F4
:10479800D83300100E3100100E3100100E31001009
:1047A8000E3100100E3100100E3100100E310010C5
:1047B8000E3100100E3100100E3100100E310010B5
:1047C8000E3100100E3100100E3100100E310010A5
:1047D8000E310010723600100E3100100E3100102C
:1047E8000E3100100E3100100E3100100E31001085
:1047F8000E3100100E3100100E310010723600100C
:104808007434001072360010D833001030340010A1
:10481800D833001000000000000000000000F03F46
:104828000000000000002440000000000000594083
:104838000000000000408F40000000000088C340D6
:1048480000000000006AF8400000000080842E414B
:1048580000000000D01263410000000084D7974197
:0C4868000000000065CDCD410D0A0000ED
:10487400204600102C460010384600104446001014
:10488400504600105C460010684600107446001044
:10489400F0B5C646150000B504001E000268EFF32B
:1048A400108172B61368002BFCD0BFF35F8F042312
:1048B400E3562268002B2BDBBFF35F8F00201060D0
:1048C40081F31088D02212061278002752B2904643
:1048D4009A420ED1002080BCB846F0BDBFF35F8F72
:1048E400176081F310882800310000F02DF90028AA
:1048F400F0D12268EFF3108172B61368002BFCD05C
:10490400BFF35F8F237922687F2BE7D9434602E008
:10491400D0231B061B682371BFF35F8F0023136032
:1049240081F310880120D6E70268EFF3108172B694
:104934001368002BFCD0BFF35F8FFF230371036860
:10494400BFF35F8F00221A6081F3108840BF704765
:1049540010B5084C2378002B0AD180230648074958
:104964005B051A68C25004338B42FAD101232370C9
:1049740010BDC0468C0D0020B80A001000010010C4
:1049840010B5014B984710BDB90A0020064B5A6870
:1049940002609A684260DA6882601A69C2605A6981
:1049A40002619B6943617047000002400268064B44
:1049B4005A6042689A608268DA60C2681A61026961
:1049C4005A6142699A61704700000240034B1A68B9
:1049D400C0239B009343024A136070470C8001403C
:1049E4000C900140054B1A6880239B005340C02261
:1049F40092001340024A13607047C0460C80014085
:104A04000C9001400023F0B5DE4657464E4645461D
:104A14009A46E0B589B001900E00988A45491B8BEF
:104A240014009847534681464349988A1B8B9847FC
:104A3400534642490500988A1B8B98478046FFF7E6
:104A440087FF02A8FFF7A2FFC847A847FFF7CAFFDE
:104A5400251E22D00823C0219C4602204905624617
:104A64008B6A1A4018423FD0631B002D2FD1002AB5
:104A740011D1002C11D0C0235B059B4602239A461A
:104A8400063399465B464A4657469B6A1A401F427C
:104A940042D0002AF6D0002C30D1FFF797FFC04750
:104AA400FFF76EFF02A8FFF781FF09B0F0BCBB4619
:104AB400B246A946A046F0BD002C2FD1C022520513
:104AC400926A914608224F463A40BF072DD50D2BD6
:104AD4001BD9002AF0D1C0225205926A91460822BD
:104AE4004F463A40BF07F2D4002A04D12B00234397
:104AF400002BB4D1D1E72B00002CF9D00B6E013C74
:104B04003370230001362B43F2E7019F013D3B78CC
:104B140001370B660197E7E70025E5E7C0235B054E
:104B24001B6E013C3370013699E72B00002ADFD15C
:104B3400DCE7C046494600004558000046430000F3
:104B44007047C0460000000001B40248844601BC1E
:104B5400604700BF61120010100000000000000058
:104B6400000001000000000000000000000002003E
:104B7400000000000000000000000300000000002E
:104B8400000000000000FF000000000001B54868BC
:104B940001318E460047704609380149884701BDF6
:104BA400210B0010000000000000000000000000C5
:104BB400000000000000000030040020000000009D
:104BC400503300004C3300005433000052330000D3
:104BD4004D5300004D4300005334000043340000A3
:104BE400D1410010D54200101D420010E9420010CE
:104BF40000000000000100000000000000000000B0
:04000005100001E9FD
:00000001FF
