:020000041000EA
:1000000000B5324B212058609868022188439860DF
:10001000D860186158612E4B002199600221596106
:100020000121F02299502B49196001219960352056
:1000300000F044F80222904214D00621196600F024
:1000400034F8196E01211966002018661A6600F04E
:100050002CF8196E196E196E052000F02FF8012189
:100060000842F9D1002199601B49196000215960AB
:100070001A491B48016001219960EB211966A021F2
:10008000196600F012F800219960164914480160C1
:100090000121996001BC002800D000471248134993
:1000A000086003C880F30888084703B5996A0420EC
:1000B0000142FBD001200142F8D103BD02B5186610
:1000C0001866FFF7F2FF186E186E02BD00000240BE
:1000D000000000180000070000035F00212200005C
:1000E000F4000018222000A00001001008ED00E03C
:1000F00000000000000000000000000074B24E7A12
:1001000000200420F7010010CB010010CD010010E9
:10011000C9010010C9010010C9010010C901001077
:10012000C9010010C9010010C9010010CF01001061
:10013000C9010010C9010010D1010010D301001045
:10014000C1010010C1010010C1010010C101001067
:10015000C1010010C1010010C1010010C101001057
:10016000C1010010C1010010C1010010C101001047
:10017000C1010010C1010010C1010010C101001037
:10018000C1010010C1010010C1010010C101001027
:10019000C1010010C1010010C1010010C101001017
:1001A000C1010010C1010010C1010010C101001007
:1001B000C1010010C1010010C1010010C1010010F7
:1001C000EFF30580103800BE00BE00BE00BE00BECA
:1001D00000BE00BEF2EB8871E0490010044A001036
:1001E0003802001090A31AE71E481F49086006C88D
:1001F00081F3088810471D480068002801D019487D
:10020000F3E70DA40ECC002902D000F012F8F9E7B4
:100210001749184A002000E001C19142FCD116495B
:100220008847164988471649884700BEFDE701C937
:1002300001C29A42FBD37047044A0010C00000205C
:10024000B0100020F4590010000004200000042029
:10025000F4590010001004200010042000000000D9
:10026000704700000000000008ED00E0000000D032
:10027000B0100020AC1F0020AD190010D5020010F6
:10028000A5190010F8B5C04606480749091A8B1091
:10029000C90FC91810B5491003D0044B002B00D06A
:1002A000984710BDB0100020B010002000000000E2
:1002B000054B10B5002B03D00449054800E000BFF2
:1002C000FFF7E2FF10BDC04600000000481E0020FE
:1002D000A445001010B501F075FC02E00A2000F002
:1002E000FBFD01F065FF0028F8D0044C044800F045
:1002F000F3FD200001F0B4FCF8E7C046A44500106F
:10030000102700008023DB051868000F7047C046E7
:100310000FB400B5084883B001F0A2FC049B002B89
:1003200007D005A91800019101F022FB034801F054
:1003300097FC012001F034FBAC450010BC450010D7
:1003400070B5EFF3108C72B60D4D2B68002BFCD0FE
:10035000BFF35F8F0724CB08C618C05C01230C4095
:10036000A3401C000440034207D118433070BFF380
:100370005F8F2C608CF3108870BD1000FFF7C8FFF2
:100380002C0100D0F8B54746CE46884680B5EFF33D
:10039000108C72B61C4D2C68002CFCD0BFF35F8F04
:1003A0009A4222D807210126894602E0013293426F
:1003B00018D34D4637001540AF40D4080119045DED
:1003C0002742F3D110003C430C70BFF35F8F002233
:1003D0000D4B1A608CF3108800280EDBC0BCB946A8
:1003E000B046F8BD01204042EFE7BFF35F8F002326
:1003F0002B608CF31088012040424346002BEDD047
:100400000898FFF785FFC0462C0100D0044A1078F9
:10041000431CDBB2172B00D9102313707047C04662
:10042000E00F002010B5064B064C82B0010000938F
:1004300018221F232000FFF7A5FF02B010BDC04601
:10044000C0450010D81900200021044B044ABFF316
:100450005F8F02C39342FAD17047C046000100D0BB
:10046000800100D0054B064A1360064A13605360B2
:100470009360D36013615361936170478080808083
:1004800000E400E004E400E01F2318401E3B83402A
:10049000002905D0C021044A490053501360704719
:1004A000802201498B50FAE700E100E001228240FE
:1004B000034B1B6813405A1E9341D8B27047C04685
:1004C00000E100E001238340014A13607047C04609
:1004D00000E200E0064B10309B688000C358054ADC
:1004E00000209B1A2F229A424041C0B27047C0465A
:1004F00000ED00E0E40F002070B50D00EFF3108672
:1005000072B60F4A1368002BFCD0BFF35F8F0D4B00
:1005100010309B6884001B590B4A934203D09D42C4
:1005200001D000F0FFFF074B9B681D51BFF35F8FA9
:10053000BFF35F8F0022024B1A6086F3108870BDF4
:10054000240100D000ED00E0C1010010F0B55746D5
:100550004E46DE464546E0B585B0060000911700E0
:10056000EFF3108B72B66A4A1368002BFCD0BFF30E
:100570005F8F0025674B5D579A46002D00DAA9E092
:100580006B00654C01935B199B009846A146C144E2
:100590004B4652469B7910361370604BB6009B68F1
:1005A00099590B1B2F2B33D95D4B994200D0ACE0EE
:1005B000019B42469C465B4B6544AD0063535A4BDE
:1005C0000232A218043B9B1A1B05584A5B0D6519A1
:1005D00013436B80564B0121AB80FF23AB71009B13
:1005E000EF71AB604B460B4319004C4B9B68995124
:1005F000BFF35F8FBFF35F8F0022454B1A608BF311
:10060000108805B0F0BCBB46B246A946A046F0BD76
:1006100001200A008243D3798C46BB4231D845463B
:10062000130044491B1B5B415943090D3D4B635368
:100630003D4B02356519043B5B1B1B053B4D5B0DB8
:100640002B43AA464D466B800425AC465546E044F4
:10065000131F44441B1B1B055B0D1D434B46997127
:1006600000999D8099604946DF71334B01431360C7
:10067000BBE75800C01880002018C179B9422FD9B3
:1006800002000623D356002BF3DA02932B4B61466C
:100690000393131D9A4604235B429C46E144504653
:1006A0004B461B1A1B055B0D9C46204B95719846CB
:1006B0006346404603439380019B5A199200039B73
:1006C000A418A380029B1C4AA371009B2260E771BF
:1006D000A3608AE700F026FF002553465D574FE7E9
:1006E000908802934005131D9A46031561469C4667
:1006F0004046D444634604302018181AE02300050D
:10070000400D1B0218430390C5E700F00BFF4FE7B5
:10071000240100D0A51F0020E40F002000ED00E020
:10072000C101001000A1FFFF1410002000E0FFFF36
:1007300001BDFFFFAAAA00000148804701BD0000DB
:1007400070B501240443EFF30581EFF3108C72B60A
:10075000214A1368002BFCD0BFF35F8F1F4B0500AD
:100760001F4AED1A6D416A43120D1E4D8900AE6895
:1007700052B27658A6421CD00621595691421CD03E
:1007800012215956914222D01E215956914220D011
:100790002A2159560324914210D0134B19781A700C
:1007A0008171BFF35F8F00220B4B1A608CF31088AE
:1007B00070BDAB680D4C5C50EFE700246100091977
:1007C00089005B18FF21997109499980E5E70124A7
:1007D000F4E70224F2E7C046240100D0E40F002031
:1007E000AAAA000000ED00E0A51F0020C101001032
:1007F00001BDFFFF10B5084B084C82B0010000930B
:10080000002205232000FFF7BDFD002801DB1F2388
:10081000181A02B010BDC046DC450010A91F002008
:10082000024B9C46614489000160704740000034DF
:1008300070B5114C114DAC420FD2FF262368002B2E
:100840000CD0FFF7E3FD01002000FFF7E9FFA680D1
:10085000BFF35F8F0834AC42F0D370BDFFF7D6FD15
:1008600001002000FFF7DCFF2671BFF35F8F083423
:10087000AC42E3D3F1E7C046A8100020B01000203E
:1008800010B50400FFF7C2FD01002000FFF7C8FF0C
:10089000FF232371BFF35F8F10BDC04610B5040066
:1008A0000120FFF7BFFD034BC3189B002360BFF37C
:1008B0005F8F10BD40000034034B9C4661448900AB
:1008C0000160BFF35F8F7047400000340A4B196826
:1008D000EFF3108072B60A68002AFCD0BFF35F8F76
:1008E0001B68BFF35F8F00221A6080F3108840BF3F
:1008F000002000217047C046841F0020F0B5DE466E
:1009000057464E464546E0B587B0EFF305830322D0
:1009100001251A40954091008846A946B34B0392A1
:100920005C58B34B1D60B34B04934B46B2484363D2
:100930000823E55E002D37DAA3881BB2002B00DB0D
:10094000ADE0A379002B00D0EEE00823E05E0028A4
:1009500020DB430062691B18DB00D3189E68DD684A
:10096000731C00D111E1A44801004144826A0B6963
:10097000B71A9B1A9F4215D30123026A039883403A
:100980001A420FD09C4800F0B5FB8D4202DCCCD15E
:100990008642CAD940BF07B0F0BCBB46B246A946A2
:1009A000A046F0BD0E61EDE762696B0092465B19EF
:1009B000DB009A4453469E68DF6800F09BFB8F4241
:1009C000BADC00D103E1002F00DAE8E052465346DA
:1009D00052691B699346049A934200D1D9E052466A
:1009E0000821605E528800045946104398470090E1
:1009F00001910099019A0B001000134300D1CEE041
:100A000013000A00B61A9F41002806DB7A4800F05E
:100A100071FB009E019F36184F4153469E60DF6078
:100A200000229A5E002A00DA86E75300991860696E
:100A3000C900411802938B68C9689B46B94200DD22
:100A40007AE702D1B34200D976E708239C46A44452
:100A5000059565462281A446029B2C0006E05300C2
:100A60009918C90041188D68C968AB469B18DB000E
:100A7000C318B94206DC00D1B3E01C000023E25EDB
:100A8000002AECDA230064469C4653461A806346EB
:100A9000059D1D80A3881BB2002B00DA51E7226957
:100AA000EFF3108172B61368002BFCD0BFF35F8F99
:100AB0000123A7885B42A3803FB22369BFF35F8F06
:100AC00000221A6081F31088002F00DA39E7230032
:100AD000083322009A4666697B00DB19DB00F318B5
:100AE000996850468C460824115FDD68002910DBA8
:100AF000029306E0AB4244D00023E15E20000029CF
:100B000006DB4C006418E4003419E368AB42F1DD05
:100B1000029B078000201F5E1980002FDCDA140082
:100B2000A379002B00D110E70023A371260008232E
:100B3000E15E08364B1C00D12CE70800A24665692F
:100B400002E03E004B1C1AD04B005B18DB00EF1894
:100B50000A008C46E95E7B881BB2002BF1DA012388
:100B60005B42DC17BB60FC60824205D0534631809B
:100B70001B893B8053461A8160464B1CE4D1544686
:100B8000E5E6A3686345B7D9C2E76B1C00D0EAE687
:100B9000F8E65B4658461B69984700281BD1534628
:100BA0001B8822692381EFF3108372B61168002934
:100BB000FCD0BFF35F8F514662880A80226965804E
:100BC000BFF35F8F0021116083F31088B4E6864283
:100BD00000D8F8E6B0E65B461A685B6800920193BD
:100BE00007E7B34500D848E74CE7C046681E002039
:100BF0003C700540FD0800100040054070B52E4CCB
:100C00002569002D04D00A212C48FFF709FE70BD8C
:100C10002B4E0321300000F063FAE660FFF7F6FB8D
:100C2000284B03229C46D02322701B061B680121FF
:100C30006370254B6044A3600F2380002061022075
:100C4000638063694942A180198002311986473166
:100C50001D83585218315A5275325C3999521832E4
:100C60000131995218320131995218320131995299
:100C7000083518329D52023118329952183201311A
:100C80009952183201319952183201319952183261
:100C9000013199521832013199520C4B0C49DC60E8
:100CA00001303562FFF728FC01210320FFF7ECFB40
:100CB000084B1D60A7E7C0462C100020841F0020B1
:100CC0000040054040000034FFFF1000681E002077
:100CD000FD08001038600540004870472C100020C7
:100CE000F8B51F0008AB1B7804001600002B08D1D4
:100CF00000F008FA32003B00121A8B41002B00DA98
:100D000052E02269EFF3108072B61368002BFCD01A
:100D1000BFF35F8F0223E15E63694A005218D2007D
:100D20009B182269002936DB1D886580BFF35F8F21
:100D30000025156080F31088069A9E60DF601A61B6
:100D4000079A5A615A8801325204520C101C002A28
:100D50001FD082B25880080410432669EFF3108731
:100D600072B63268002AFCD0BFF35F8FA2881A8067
:100D7000A1802369BFF35F8F00221A6087F3108878
:100D80000A4923788C4601329A40E36863441A602A
:100D9000F8BD0120DDE7BFF35F8F0023136080F310
:100DA000108801204042F3E70020F1E73C200000DA
:100DB00070B501000469EFF3108C72B6206800284A
:100DC000FCD0BFF35F8F02200D5E4C6968004019B4
:100DD000C00024180869002D36DB26884E80BFF33A
:100DE0005F8F002606608CF31088E36063880498A8
:100DF000013320615B0405985B0CA26060611A1CE2
:100E0000002B1FD093B22804628018430A69EFF3C5
:100E1000108C72B61368002BFCD0BFF35F8F8B88E9
:100E200023808D800B69BFF35F8F00221A608CF3E3
:100E300010880B7801329A40CB6808498C4663448D
:100E40001A6070BD0122DDE7BFF35F8F00230360EE
:100E50008CF3108801204042F3E7C0463C2000009C
:100E600010B543890A1493421ADD53009B18426956
:100E7000DB00D3180469EFF3108C72B62268002AE5
:100E8000FCD0BFF35F8F5A88090494B2090C8A42E0
:100E900008D00369BFF35F8F00221A608CF31088BB
:100EA000002010BD8022120214435C8001230269DD
:100EB0008371BFF35F8F002111608CF310880449A8
:100EC00002788C469340C268012062441360E8E7D0
:100ED0003C20000040787047F0B5C64600B582B0AF
:100EE000040000F00FF9FA2206000F002000002392
:100EF0000021920000F0D2FC8019794104000D1EFF
:100F000002DA01242E4D644206267642F71736197E
:100F10006F41AF4214D811D000F0F4F832003B001A
:100F2000121A8B41002B15DC002B46D02000290023
:100F300000F0F2F802B080BCB846F0BDA642EBD992
:100F40000026002700F0DEF832003B00121A8B4129
:100F5000002BE9DD00F0D6F832003B00121A8B417D
:100F6000002B0ADB00230193164B32000093164836
:100F70003B00FFF71DFF0130D8D000233900B046F9
:100F80009C46124A1248536A994204D8966A4645CA
:100F9000CCD29942CAD10668EFF3108772B6336893
:100FA000002BFCD0BFF35F8F0368BFF35F8F6646F3
:100FB0001E6087F3108820BFE5E7002AB6D0C9E796
:100FC000FFFFFF7FCD0800102C10002000400540DF
:100FD000841F0020F0B557464E46DE464546E0B534
:100FE00006000F0085B0EFF3058399468B46002B72
:100FF00012D0384900204B6ABB4206D38A6ADB1BF9
:10100000591E8B41B2424041184305B0F0BCBB466B
:10101000B246A946A046F0BD2F4B9A46DB689846DB
:1010200053461B784046039300F064F84246039B06
:10103000040004339B009B580D001B1A390030003C
:10104000001BA941894510DC0DD020BF214A00209A
:10105000536A5B45D9D3926ADB1B591E8B41B2425E
:1010600040411843D1E78342EFD900F04BF83200FA
:101070003B00121A8B41002B1ADB00230193174B04
:101080003200009350463B00FFF792FE011E0FDD39
:10109000104B5A6A5A451BD39B6AB34216D350462B
:1010A000FFF7DEFE0B4A0020536A5B45ADD3D2E763
:1010B000084A0020536A5B45A7D30020926ADB1BD5
:1010C000B24240415A1E934118439EE75A45E6D129
:1010D00020BFE4E7004005402C100020CD080010A0
:1010E00010B5024A0248FFF72BF910BDF845001071
:1010F000DC1900200300416A0A00986A596A8A4292
:10110000FAD17047034B596A0A00986A596A9142AA
:10111000FAD1704700400540064A536A9942FCD80C
:1011200007D1044B02E05A6A914202D19A6A904276
:10113000F9D8704700400540F8B5DE464E465746A0
:101140004546E0B58B4605000A991800160000F0E8
:1011500013FB0A9B6C001F02324B64199C46A400CF
:101160006444636881469F4200D967602B1FDBB2ED
:101170009846012B30D9C02380229B01E31812012D
:101180001A60294BAD0059599A4600291BD17301A9
:10119000E026226853401E40802342465B01E3184C
:1011A0001E60012A30D9802380229B01E31812019E
:1011B0001A6053464A4667605A51F0BCBB46B24675
:1011C000A946A046F8BD586900F0D6FA01304300A0
:1011D0001B18033BFDD2DAE75B46012BCBD1C023C2
:1011E00003229B01E3181A60023AA3681A42FCD05A
:1011F0007301E0262268AD0053401E4080230A4A56
:101200005B019246E3181E605A4621685140032252
:101210000A401A6001225B469A40A3681A42FCD039
:10122000C1E7C04600800040E0190020F0B5464606
:101230004F46D646C0B51F00344B44009C46241888
:10124000A4006444636888461600FF2B02D88023FC
:101250005B006360031FDBB29A46012B30D9C023C9
:1012600080229B01E31812011A60294B850059590D
:10127000994600291BD17301E026226853401E4085
:10128000802352465B01E3181E60012A30D9802377
:1012900080229B01E31812011A6080235B006360C7
:1012A0004B465F51E0BCBA46B146A846F0BD58690E
:1012B00000F062FA013043001B18033BFDD2DAE76D
:1012C0004346012BCBD1C02303229B01E3181A60B4
:1012D000023AA3681A42FCD07301E0262268850016
:1012E00053401E4080230A4A5B019146E3181E606A
:1012F00042462168514003220A401A6001234246B7
:101300009340A2681342FCD0C1E7C0460080004071
:10131000E0190020014B8000C0587047E019002000
:10132000F8B5040021481E0017000D0000F024FA53
:101330000100380000F020FA069B36041B031E4310
:101340002368002B20DB1A4B1A49E3185A1E9341DD
:101350008022920194465B421B0B174A1B03634495
:101360001360164A13601F000A689743FBD1144BA1
:101370002560E2182123A06013602368002BFCDAAB
:101380000823E6601360F8BD3F2322681340AB4298
:10139000D9D1A3681B051B0D8342D4D1EE22E3688B
:1013A000D2021340B342CED1EDE7C046001BB700D6
:1013B0000040FDBF08C0004000E0004000F00040D9
:1013C0000430000010B580241C4BE4051C6000288C
:1013D0001AD001231A4C18431A4BDC611A4C4440B2
:1013E0001C62596298628021144BC9051960174824
:1013F00017490860E021C9041960002A07D180223A
:10140000144B12061A6010BD0E4BD861EBE7530166
:101410009B1A9B009A18802312015B049A4209D2FE
:1014200013000D490B60074B5A608022094BD2050F
:101430001A60E8E7094B1A00F3E7C04600B0054020
:10144000D3C007B0008005402D3FF84FFCFF0100DE
:101450000820014000A00540401E0020FFFFFF00C3
:101460008023024A9B000B43D362704700800540F3
:10147000002310B50100988A1B8B984710BDC04609
:10148000162310B50100188802331B88984710BD39
:10149000F8B54746CE4680B50F1E18D0142399469E
:1014A000043304000025012698464B46188843461D
:1014B00021681B88984701C4431E984101350640A6
:1014C000AF42F2D13000C0BCB946B046F8BD0126EB
:1014D000F8E7C046002370B504000D00988A05495E
:1014E0001B8B984703000020002C01DB0130A0403B
:1014F0002900984755420000AA23064A1B011360A1
:101500008D235B00D3600449044B19605368002BA2
:10151000FCDA70470040024000B0FA000060024070
:101520007047C04610B50148FEF7F2FE1C46001099
:1015300070B5074D074EB54209D20024013E761B17
:10154000B60808CD984723000134B342F9D170BDE5
:10155000604500109C450010054B064A06491A607C
:10156000064A074B1A6010000B689843FBD170477E
:1015700000E00040BFCDFBFE08C00040FE7F3C0005
:1015800000F00040044BDB6C002B03D18022034BA6
:10159000D2021A607047C046000011504C20115012
:1015A000044A054B1A60054A1368DB018033FBD1FE
:1015B0007047C046FFFFFF0100F0004008C0004038
:1015C0004022034B9A675A671A67DA667047C0462B
:1015D00000F0014010B5FEF737FF10BDF8B5274900
:1015E000274C284D641AA6103200302E00D9302224
:1015F0002800920000F0AEF9BC2C3BD830202F23FD
:101600002C196407204A801BE40F9B1B052B16D95D
:101610003700002C02D0B300771CEA50001B3319AE
:101620009B004108EB18C900C9181A605A600833BA
:101630009942FAD1012303421CD09843C619B30042
:10164000EA50731C2F2E15D09B00EA50B31C2E2E8F
:1016500010D09B00EA50F31C2D2E0BD09B00EA50BB
:10166000331D2C2E06D09B00EA50731D2B2E01D06B
:101670009B00EA50054B9D60F8BDC046000100107C
:10168000C001001000000020C101001000ED00E0CA
:10169000002310B5294C82B0A367FFF72DFF01226C
:1016A000274B1A60636C012BFCD10322254B1A6077
:1016B000224A936B012BFCD1013300930121224A72
:1016C00022480433FFF72CFE052301210093204A12
:1016D0002048FFF725FE0022022104201E4BFFF7C1
:1016E000A5FD0022012105201C4BFFF79FFD0022D4
:1016F000002107201A4BFFF799FD00220021082046
:10170000174BFFF793FD8023DB000093002200219D
:101710000920134BFFF710FD0022104B002106207B
:10172000FFF784FD0420FFF7F5FD0E4900F024F8D3
:1017300001000020FFF794FE02B010BD00800040C1
:101740003CB0004030B00040002F6859008002409B
:10175000008C864700C00240001BB7004059730749
:10176000006CDC0240420F0001480421014B184785
:101770005010002091140010114A936F9B0813D24F
:1017800010665166002905D0FFE7FFE7FFE7516FBC
:10179000106F704704B5002801D00020C04302F04C
:1017A0009FFE002104BDC046F0B5146E556E576F04
:1017B000166FFFF7E5FF1466556657671667F0BDAD
:1017C000000000D010B50148FEF7A2FD2846001029
:1017D000132370B51D78012D19D014DD1D48FFF7B6
:1017E0004FFE06001C48FFF74BFE1C4C80223100C8
:1017F000200000F0AFF8022D06D01948FFF738FEA0
:10180000184B186070BD154C174BA364F5E7174BC8
:10181000124C23606360A360E36023616361A36192
:10182000E36123626362A362E36223636363A3638E
:10183000E36323646364A364E36423656365A3656E
:10184000E36523666366A366E36623676367A3674E
:10185000E367D9E7534400005346000038120020E4
:101860004C330000801E002071180010C5170010B6
:1018700007B5604601880A0A0230DF2AFAD1C9B2E8
:10188000820804D3028840880004104300E0006806
:10189000014A5050039007BD381200205143434382
:1018A000C9188C46110C83B24B4310B4040C61432D
:1018B00092B280B2504362431C041B0C001910BC4E
:1018C00059411304120CC018514161447047000083
:1018D00010B50148FEF71CFDA0460010132310B5FB
:1018E00010481C78FFF7CCFD0100012C0AD003DD65
:1018F00080220D4800F02EF80C48FFF7B9FD0C4B84
:10190000186010BD084C5422200000F023F822007B
:10191000084980322368002B00D1216004349442AE
:10192000F8D1E9E753460000841E00204C33000044
:10193000801E0020D118001001480421014B1847D7
:101940006010002091140010014B1B681847000024
:1019500060100020014B5B681847000060100020F9
:1019600010B5002800D110BD00F030F9FBE7C046EB
:1019700010B5094A0300146884B0002C08D0012275
:1019800000910648524203A9A047012004B010BDAF
:1019900000F066F90020F9E73C1E002061190010F4
:1019A00000BEFDE710B5FFF7FBFFC04670B5FFF7BF
:1019B000BFFD074D074EB54209D20024013E761BFC
:1019C000B60808CD984723000134B342F9D170BD61
:1019D0009C450010A4450010030010B5080011003C
:1019E0001B68984710BDC046F0B5C64600B5437D9C
:1019F00007000C001600002B46D0002A17DD0B78DC
:101A00000A2B24D000239846012E13D0012529004B
:101A1000635C01350A2B26D0B542F8D1464509DC76
:101A2000A419013C23780D3B5A4253413B7580BCBD
:101A3000B846F0BD4346E018A419F11A013C3B68D2
:101A4000984723780D3B5A4253413B75EFE7037D9E
:101A5000002BD7D102210F483B689847012EDFD0D9
:101A600001239846D2E7631E5B5C0D2BD4D08845DA
:101A700004DA4346C91AE0183B6898470221054832
:101A80003B68A8469847C7E70368110020009847BD
:101A9000CDE7C0467C470010F0B54546DE464E46D1
:101AA0005746E0B583B091461C0080460D00FFF715
:101AB00029FB0023304A12184B41002B02DA012285
:101AC0002E4B52422E4908008A4602F021FD0700A3
:101AD0006B1C03D1404602F0BBFC0500002C27D054
:101AE000284E294B1C68002C18D04B46002B21D1C6
:101AF000264B994602E02469002C0FD02368002B66
:101B0000F9D04B461B68002B01D09C42F3D120003A
:101B10002A004146B0472469002CEFD1002F26D17E
:101B2000280003B0F0BCBB46B246A946A046F0BDB3
:101B3000174ED6E7154B99460A239B4602E02469C7
:101B4000002CEBD02368002BF9D04B461B68002BF0
:101B500001D0A342F3D12A0041462000B0476B4692
:101B60005A462000DA71D91D0122B047E7E75046F6
:101B700002F0A6FCD4E7C04640420F00FFFFFF7F03
:101B8000A8100020E9190010301A0020381A00208F
:101B9000D91900100A4A1368002B05D10CE01A006D
:101BA0001B691032002B07D08342F8D1002902D1E3
:101BB00018691060196170470029FCD01060FAE7BD
:101BC000301A002010B500F07FFA10BDF0B5CE46F7
:101BD000474680B583B06B460600DD1D2870FFF7D1
:101BE00091FA0023194A12184B41002B02DA012204
:101BF000174B524217490800884602F089FC164BE1
:101C000081461C68002C14D0144F02E02469002C7B
:101C10000FD02368002BF9D03B68002B01D09C42E9
:101C2000F4D1200001222900FFF7DEFE2469002CF8
:101C3000EFD14B46002B05D1300003B0C0BCB946F4
:101C4000B046F0BD404602F03BFCF5E740420F00D5
:101C5000FFFFFF7FA8100020301A0020381A002054
:101C600070B5040002F0F4FB01230100050001221D
:101C70002000FFF711FF084B1C68002C06D063689A
:101C8000002B05D098472469002CF8D1280070BD9E
:101C90002469002CF3D1F9E7301A00207047C046C0
:101CA0000022014B1A707047A61F00204B790020BC
:101CB000FF2B0BD18B79002B08D1CB79012B05D1D0
:101CC000082A03D9024B8A7809301A707047C04637
:101CD000A61F00200120704710B5012913D1124919
:101CE0005379107909781B0203430020994200D0F0
:101CF00010BD5378012B08D0022BF9D164220021AA
:101D00000020FFF75FFB0120F2E7D37891781B02F8
:101D10001943480ADB0501D4012040427F238A058C
:101D2000D20F1940FFF7D6FBA61F002000487047CE
:101D30004848001070B5050014000120012909D1A0
:101D400053780020012B05D1637912791B021343CC
:101D5000072B00D070BD21002800024A9F3301F0FC
:101D60005BFAF7E7A04700100123037000487047B3
:101D7000804700104B780A781B0213438A7810B50D
:101D800012041A43CB781B0613439622D2009342C7
:101D900000D010BD0022012011004042FFF79AFB45
:101DA000024B1860024B19607047C046D0190020E2
:101DB000D419002010B5024B1878FEF783FB10BD34
:101DC000A71F0020154B70B51A68002A22D0EFF328
:101DD000108172B610680028FCD0BFF35F8F00201E
:101DE0000F4A596010701B68BFF35F8F186081F352
:101DF0001088002400250B4E3078FEF757FB002892
:101E000004D1002400252900200070BD3078FEF7A1
:101E100059FBF8E7FA240025A400ECE7601E002037
:101E2000A81F0020A71F002070B5040000200E008E
:101E300001F010FB002834D0002001F021FB002825
:101E40002FD0FFF75FF90023174A12184B41002BE0
:101E500016DB164D280002F05BFB002821D0002085
:101E600001F0F8FA00280FD101200021404200F0D3
:101E700007FD03246442280002F022FB200070BD0D
:101E800001220B4B5242E4E7002001F0F9FA00284E
:101E9000EAD021003200002001F0FCFA041EEAD151
:101EA000E7E703246442E9E740420F00881F00206F
:101EB000FFFFFF7F10B5FFF725F900230D4A121829
:101EC0004B41002B02DA01220B4B52420B4C2000FB
:101ED00002F01EFB00280CD001200021404200F03F
:101EE000CFFC002001F01AFB0028F5D1200002F001
:101EF000E7FA10BD40420F00FFFFFF7F881F002060
:101F0000F8B5DE46574680B505000C00FFF7FAF835
:101F10000023364A12184B41002B02DA0122344BBF
:101F20005242344908008A4602F0F2FA002803D1EE
:101F3000C0BCBB46B246F8BD002001F08BFA0028B9
:101F40004AD00026002C43DD2B4B9B4614E0A919F8
:101F5000002001F01DFB070001200021404200F09D
:101F60008FFC002001F0DAFAFFF7CCF8224BF619CB
:101F700018605960B4422BDD002001F029FBA71B3B
:101F80000200B84200DD3A00002AE0D10120002121
:101F9000404200F075FC002001F0C0FA002001F082
:101FA00059FA002814D0002001F012FB0028E1D1DA
:101FB000FFF7A8F85B460F001A685B6800218446AB
:101FC0000E4812184B419F4202D8D3D19445D1D923
:101FD000504602F075FAABE700200021064B18606E
:101FE0005960504602F06CFAA2E7C04640420F002A
:101FF000FFFFFF7F881F00203012002020A1070074
:1020000030B52A4C85B00021200002F071FA00287A
:102010001CD1274B1A68002A16D0EFF3108172B634
:1020200010680028FCD0BFF35F8F0124214859605D
:1020300002781B68D2B20470BFF35F8F0020186073
:1020400081F31088002A17D005B030BD012000218F
:10205000404200F015FC002001F012FA05002000BB
:1020600002F02EFA002DEFD0134B1B68002BEBD0A3
:10207000124A10689847E7E7FEF72EFE0400FFF7C4
:1020800041F8FA220023920012184B41002B02DA89
:1020900001220B4B52420121029100210191094979
:1020A00020000091FEF71CFECEE7C046881F0020EE
:1020B000601E0020A81F0020D0190020D419002085
:1020C000FFFFFF7FC51D0010D02310B51B0684B095
:1020D0001C68FEF701FEFEF7FDFEA04202D00020C4
:1020E00004B010BD294B002100201B7801F064FDD5
:1020F00027480368002B45D00120FEF77BFBFF2318
:10210000244C254920701840FEF7F6F9207801216B
:10211000FEF7BAF90520FEF7DDF9002824D10822E0
:1021200000211E48FFF710FCFEF7D6FD0400FEF765
:10213000E9FFFA220023920012184B41002B02DA29
:102140000122174B524201210291002101911549B0
:1021500020000091FEF7C4FD0028C0DB12480121D9
:10216000FFF718FD0120BBE70120FEF75BF90B4BE1
:1021700001001800FEF7A0FB002205200B49FEF726
:10218000E5F9EBE7FEF77CFBB6E7C046004A001036
:10219000881F0020A71F002001200010601E0020C3
:1021A000FFFFFF7FC51D001070100020B51D00103F
:1021B00010B5002001F04EF910BDC0460048704730
:1021C000E4480010004870479048001010B5040023
:1021D00017480378002B20D0002C06D1154B164849
:1021E0004380063BFF3B038010BD052C1DD8134BDD
:1021F000A400E05812490123013804E001330A80A9
:102200000231142B0DD0C25C002AF7D1C022DBB200
:102210005B00920008481343E5E7112100F01AF82B
:10222000DAE7CA2304489B00DDE70020DCE7C0466C
:10223000901F002009040000081A002078480010B0
:102240000A1A002010B5024800F0D8F810BDC046A8
:10225000781E002030B54B1E012900D1A7E0664A48
:1022600011780D092C0030349F2900D9A2E00470A8
:10227000012B00D1BEE00F21147821400C00303436
:10228000092900D998E04470022B00D1B2E05478BB
:102290002509290030319F2C00D990E08170032B53
:1022A00000D1A7E00F2121400C003034092900D9CA
:1022B00087E0C470042B00D19CE0947825092900A4
:1022C00030319F2C00D97FE00171052B00D191E0C6
:1022D0000F2121400C003034092900D976E04471E7
:1022E000062B00D186E0D4782509290030319F2CB7
:1022F00000D96EE08171072B00D17BE00F212140D6
:102300000C003034092966D8C471082B00D171E063
:1023100014792509290030319F2C5FD80172092BCF
:1023200068D00F2121400C003034092958D844725C
:102330000A2B5FD054792509290030319F2C52D8BF
:1023400081720B2B56D00F2121400C00303409290B
:102350004BD8C4720C2B4DD094792509290030310B
:102360009F2C00D9073101730D2B43D00F21214041
:102370000C003034092901D937310C0044730E2B7D
:1023800038D0D1790C09220030329F2900D9073288
:1023900082730F2B2ED00F220A4011003731092AE9
:1023A00001D830321100C173102B23D0103000231C
:1023B000037030BD07345AE737310C0063E707314B
:1023C0006CE737310C0074E707317DE737310C00DB
:1023D00085E707318EE737310C0095E707319DE738
:1023E00037310C00A3E70731AAE737310C00C4727C
:1023F0000C2BB1D1C018DAE7781E002010B588B0D8
:1024000004000D2200216846FFF79EFA0D220021EC
:1024100004A8FFF799FA4B236A466846137004A98B
:102420000D2202F045F81521082220006944FFF72B
:1024300091FA08B010BDC046F8B500F047F90C237A
:10244000194DFF22AB6705201849FEF77FF8184C9D
:10245000402200212000FFF777FA402700230126C1
:102460002121144A66702783A260136063545F3190
:10247000618445396354104A10496360E2602787DC
:10248000A1620B606362E26202F022F880239B0586
:102490002E64EB6490230A4A0120EA508022094B03
:1024A0005202DA64F8BDC046000011504505002014
:1024B0003C1A002084001050000110508000105081
:1024C00010D001000020115010B501210520FDF7AA
:1024D000DBFF10BD10B500220021024800F016F904
:1024E00010BDC0465C1A0020044B1970002904D0AE
:1024F00080219023024A8902D1507047A21F0020F8
:10250000002011500B785B0602D14B78052B00D0D0
:1025100070478A78014B1A60FAE7C04600001150F4
:10252000F0B5C646C87800B58007830F1800012BA8
:1025300060D08F780A794B797F213940FC091B02E2
:102540004E001343334D32195201AA1897700127D8
:102550006740577000275B055B0DD7701383D076FB
:10256000B846CA00012C32D02B4FBC468F016244C2
:10257000BC46AC446746BA6047461760002932D073
:10258000264AC90090466246414451603F223F338B
:102590009343022837D0224937190A687F01D3189C
:1025A0000B602049EF19FA608B422ED8361976015C
:1025B000AD19EB7E1C499B064A401343802212064C
:1025C00013436A681360012080BCB846F0BD174F02
:1025D000BC468F016244BC46AC446746BA6247467B
:1025E0001760002908D1002364012C196360104B87
:1025F000E360E8E70020E7E70B4AC900904662463F
:1026000041445162C2E75B00C5E7FEF78BFFFA6801
:10261000CCE7C0463C1A0020840010500400105043
:10262000441E0020FF0F105000001050800010507A
:102630000001105010B501F04BFF10BD10B57F2008
:102640000C0020404000E409110000191A00034B5F
:102650004001C01800F05AF8012010BD3C1A0020BB
:102660007F23180000B5084083B00B4204D14B42D1
:102670004B41084A013393668022C9094000064B4A
:10268000401840010021C018120101F059FF03B0A9
:1026900000BDC046002011503C1A00207F221300CC
:1026A00010B50B400A4200D110BDC9095B005B1890
:1026B00004485B01C018002300220349C37001F0E5
:1026C0003FFFF1E73C1A0020FFF7FFFF80220A4B93
:1026D000520410B51A60094B09491A6010000B68C2
:1026E0009843FBD18022002152010648FFF72CF9C4
:1026F0000922054B5A6710BD00E0004000F0004081
:1027000008C000400000105000001150002310B518
:10271000C3820133828283760161040001F018FFD5
:10272000002804D080219023074A8902D15020003C
:1027300001F0F6FE002802D00123237710BD20000F
:1027400001F0F6FEFAE7C046002011507047C0467F
:102750007047C04600207047002070477047C04651
:102760007047C0467047C0467047C046024B587815
:10277000431E9841C0B27047E8140020024B1878FD
:102780004007C00F7047C046E8140020F0B5D64699
:102790004F464646C0B52F4B07009A461B780E00A1
:1027A000FF2B50D1002941D0002154222A48FFF7A5
:1027B000CBF80022294C2A4B20001A70FEF760F853
:1027C000284B1C60284C2000143CFEF767F82000C2
:1027D00001F0FAFD254B264D1C60264B002B04D042
:1027E0002800FFF7C1FA244B1860244900248946C9
:1027F0002149002388462A7810E043461B6862017D
:102800009B18002B12D05B68002B0FD098472A78BA
:102810000134E4B2511C2300A14209DBA242ECD8EE
:102820009B1A5B014B445B68002BEFD100200BE04F
:102830005346310038001F70FFF7FEFD0028F5D029
:102840003800FFF741FE0120E0BCBA46B146A84679
:10285000F0BDC046A4100020E8140020E0140020C1
:10286000A31F00203C1500209C10002040150020D4
:10287000A11F0020691D001038130020A04900107E
:10288000F0B5DE4657464E464546E0B5C84B91B0DA
:1028900002931B78FF2B00D13EE1C64BC64E9B46F0
:1028A0005F46C64B0DAC0193C54B009335686A6912
:1028B000EFF3108172B61368002BFCD0BFF35F8F6B
:1028C000A9612800210001F0AFFB6A69AB69BFF381
:1028D0005F8F0021116083F31088002800D11BE175
:1028E0006378082BE2D89B00FB589F466368002B57
:1028F000DCD0A0689847D9E77F222179AF4D0A4004
:102900005300EB189846C8098044404601233030F4
:1029100005799D430571057903339D430571002AAF
:1029200000D100E14346A74A1B7D1278934200D3B1
:10293000EFE0A54A5B011568ED18002D00D1EBE032
:10294000A36862792078AD69A847AFE79F4A1378FA
:10295000002B00D1E0E01378013BDBB21370137859
:10296000002BA3D10122954D01212B780420134384
:102970002B703423EA5C8A43EA54EA5C8243EA54CB
:102980000133EA5C8A43EA54EA5C8243EA542378DE
:1029900000209B4600F09EFC602223791A40602AAA
:1029A00000D1EFE0402A00D1F5E0DB06DB0E012B81
:1029B00000D113E1022B00D1C7E0002B00D0E1E0F1
:1029C000202A00D11CE2002A00D0DBE06379092B29
:1029D00000D9D7E07E4A9B00D3589F46774D2B788D
:1029E000DB0700D462E7FFF7BFFE5FE7019BDB7800
:1029F000DB0700D45AE76068FFF7AAFE56E76F4D81
:102A00002B78DB0700D451E728780007C00FFFF7C9
:102A1000A9FE4BE723786A4999468B46694B6A4978
:102A200098468A4639001A7847460023B046002562
:102A30004E46894610E053461B686A019B18002BDE
:102A400000D176E0DB68300098473A780135EDB286
:102A5000511C2B008D4244DC9542ECD39B1A5B0148
:102A60005B44EFE7237858499946564B8A46984687
:102A70003100BB464E461A7800250023474689465A
:102A80000FE053461B686A019B18002B55D0DB688A
:102A9000300098473A780135EDB2511C2B008D4239
:102AA00007DC9542EDD39B1A009A5B019446634480
:102AB000EDE7019D542200212800FEF745FF10227A
:102AC000FF214448FEF740FF28002022FF21143058
:102AD0004E465F46FEF738FF00F0F2FBFFF740FE80
:102AE000E4E6364D542200212800FEF72DFF102287
:102AF000FF21281DFEF728FF28002022FF21143087
:102B000046464F46FEF720FF00F0DAFB2379AB7014
:102B1000CCE6501C984213DA11B0F0BCBB46B2466A
:102B2000A946A046F0BDA3686279207800F0E6FBD4
:102B3000BCE646464F46214DE6E74E465F46CBE7AC
:102B40001F4D9B1A5B015D19FAE67023217A0B4237
:102B500018D1C80982460F330B405B0098461948CC
:102B6000EB1853441B7D00789946834266D2164881
:102B70005B01006881469944002A00D15FE14B4621
:102B8000002B68D120780021FFF76AFD8021207892
:102B9000FFF766FD8AE6104800F09CFB01215846CD
:102BA0000EAAFFF7C7F8002800D07FE6EAE7C04684
:102BB000A4100020F848001040150020E814002060
:102BC000A0490010A11F002038130020A31F0020DF
:102BD0001C490010EC140020351D0010237A0F2B27
:102BE000D0D8CF4AEB181B791578AB423ED3691C7D
:102BF0009942C7DB5D1BCB4B6D01ED18686900F096
:102C000069FB012158466B690EAA9847002800D03D
:102C10004CE66022150023791D401A42B2D1637937
:102C20000A3B012BAED800F055FB63790A2B00D18B
:102C300099E158460EA900F0D9FA37E6431C4B45F6
:102C400000DAF7E04B461B1A5B019946B548814410
:102C5000002A00D1F3E04B46586900F03BFB4B469D
:102C6000012158465B690EAA98479CE7AE4A5B0172
:102C70001568ED18002DC1D184E7A37999466B78CA
:102C80009945D6D06B78002B00D033E14B466B7062
:102C9000002B00D12BE148460138C0B2FFF792FA71
:102CA000002800D17EE143780793022B00D079E120
:102CB0000122C179B1468B11491113400A403021DC
:102CC00012015B0113432A78A8468A4313432B70F1
:102CD00009239A4682445646BA46C37882781B0234
:102CE0001343C31805938E4B04938E4B08938E4B5E
:102CF00009938E4B0A93059BB34200D855E1737834
:102D000001220B2B03D13378F278F6187378042B59
:102D100000D044E1059B00279B1B9BB20693049BBC
:102D20000B921D78002303931BE0099A7B01156821
:102D3000ED18002D00D132E1310058462B69069A7A
:102D400098478446082803D9069A824200D313E1A3
:102D5000049B01371D78FFB26B1C03979F4200DD77
:102D60001DE1BD42E1D8039B5D1B089B6D019C46A4
:102D70006544E1E76B780CAA0232137058460123D0
:102D80000EA900F049FA91E5E3881A0AD8B20F2A91
:102D900000D9F7E666499300CB589F460EA800F08D
:102DA0009FFA5846A179FFF795FB02222B7813432F
:102DB0002B707BE5E388012B00D0E3E608222B781B
:102DC000584693430EA92B7000F010FA6EE50220CE
:102DD00029780CAB9A1C8B068908DB0F01400B434A
:102DE0001380584602230EA900F016FA5EE5E38828
:102DF000012B00D0C6E608222B7813432B7018E76E
:102E0000237A0F2B00D9BDE6EB181D79444B1B78B4
:102E10009D4228D2444B6D011B685D19002D00D1E5
:102E2000B0E6686900F056FA012158466B690EAAAF
:102E30009847B8E6002A00D0A4E6002399466279B4
:102E40000220130003928343012B15D0002A00D0E7
:102E500098E62B004344534430331B790CAA9B075C
:102E6000DB0F0232BCE75A1CAA4200DA8AE6ED1AEE
:102E70002C4B6D01ED18D4E7E388002B12D1029B97
:102E80001878039B012B23D0FFF7EAFB434602216E
:102E9000EB18534430331A790A4301211A711A7915
:102EA0000A431A714B46002B00D1FFE4586900F029
:102EB00011FA4B4601215B690EAA5846984700203B
:102EC00000F008FA3523EB5CDB0700D5EEE4B0E652
:102ED000FFF7E4FB43460221EB18534430331A79E1
:102EE0008A431A711A7903998A431A71DAE7FFF74C
:102EF00037FC9EE600215846FFF7F6FA5846FFF7E2
:102F000099FBAB78074903930491054B0649984612
:102F10001A780591002329001D008A461BE0C0464F
:102F2000A11F0020A049001038130020FC1400202D
:102F300044490010059B6A011B689B18002B4DD06B
:102F4000DB685846984743461A780135EDB2511C64
:102F50002B008D422EDC9542ECD39B1A049A5B0128
:102F600094466344ECE70CAB9A1C584601230EA927
:102F7000157000F051F999E40B9A012A4FD0002AFC
:102F80003CD00023B07804E00133DBB20F719342F0
:102F900034D2C118C9B241440D79FF2DF4D04E4648
:102FA0004546574600236B70ECE54E465746FFF703
:102FB000D5FB3EE65546542200212800FEF7C4FC0E
:102FC0001022FF21281DFEF7BFFC28002022FF2130
:102FD0001430FEF7B9FC039BAB7057E65546FAE791
:102FE000FEF7A4FE021E00D1CCE5D37891781B0237
:102FF0000B4358460EA900F00FF9D4E565463B0097
:103000002A0031000A9800F07FFEAC46049B039A28
:103010001B7866440133934200DB6CE6BFE7174B35
:1030200029699942ADD1079AABE7FFF793FB021EDE
:1030300000D1A7E5584613780EA900F0EDF8B2E5E7
:103040002189FFF7C3F8021EF4D19BE5022A0FD0B5
:10305000FFF782FB021EC8D194E5FFF7AFF8021E0E
:1030600000D18FE5122358460EA900F0D5F89AE555
:10307000FFF7A8F8021EB8D184E5C046D13600108B
:10308000F8B557464E46DE4645460C00E0B51600FC
:103090001F00002A3CD0702398461E4B00259B46FB
:1030A0001D4B9A461AE05B461B7820009946534612
:1030B000997800F0EBFD00281CD021004846FFF76E
:1030C0002FFA002816D0A378DA09012A19D00A9A13
:1030D000013513702378E418B54219DA6378052BAB
:1030E00008D1E3789B079B0FBB4203D14246A378EC
:1030F0001A42D8D00020F0BCBB46B246A946A04632
:10310000F8BD0B9A013513702378E418B542E5DB5E
:103110000120F0E7A4100020E8140020702270B510
:103120008B780C001A4201D0002070BD064B2000A5
:103130001D78064B997800F0A9FD0028F4D02100F5
:103140002800FFF7EDF9F0E7A4100020E8140020B4
:103150000B007F2010B51840DB0934334000044ACF
:10316000C018044B1168C01800F04CFD10BDC046DB
:103170003C150020E81400200B007F2010B51840FB
:10318000DB0934334000044AC018044B1168C018EE
:1031900000F060FD10BDC0463C150020E814002082
:1031A00070B57F240F480C4064000419CD096419E0
:1031B00030342079C00701D5002070BD0126257963
:1031C0000948354300782571FFF738FA0028F4D113
:1031D000012223799343237123790332934323718B
:1031E000EAE7C046E8140020A410002070B5094C9E
:1031F0000600082220000D00FEF7ACFB0023802112
:10320000E360A3602B783000994300220023FFF78E
:10321000C7FF70BDC8140020F8B5CE46474690469B
:10322000254E80B58146082230000D001F00FEF7B4
:1032300091FB4346B3600023F381EC79AB79240220
:103240001C43231CBC4200D93B1C9FB2B381002C01
:103250000DD0002F17D04246002A2BD0402F1BD86C
:103260009FB233787F2B1CD80021144A0FE08021B5
:103270002B780022994348460023FFF791FFC0BCFA
:10328000B946B046F8BD7F230022317899433B0010
:103290004846FFF785FFF2E740239FB233787F2B44
:1032A000E2D9064C3A0041462000FEF753FB80214C
:1032B0002200ECE70020E2E7C81400208814002078
:1032C00010B5142200210248FEF73EFB10BDC04697
:1032D000C8140020014B18617047C046C814002074
:1032E00010B5054C010008222000FEF733FB002337
:1032F000A360E36010BDC046C814002070B5384C10
:103300001D0023780600DA09C9098A4210D000207E
:10331000002D00D070BD21003000FFF7F3F82369C5
:10332000002B03D022000321300098470120F1E751
:103330007F2B06D8A068002834D02A002949FEF740
:1033400009FBE289A1685219E38892B24919E28126
:10335000A160934214D03F2D12D9A389981A051C5D
:1033600080B240282AD82078ADB27F2828D8002102
:103370009A4232D01B4A2B003000FFF711FFC9E7F9
:103380002369002B05D02200022130009847002835
:103390000AD0802123780022994330000023FFF7D0
:1033A000FFFEB7E70020B5E700213000FFF758F92E
:1033B00030008021FFF754F90120ABE74025D2E728
:1033C0009A4207D0074C2A002000FEF7C3FA80215A
:1033D0002200D0E780210022CDE70022CBE7C046C3
:1033E000C81400208814002070B50400FFF7BEF94F
:1033F000002800D170BDFFF7C1F90028FAD1C82319
:103400006343124DEE18F1780029F3D010335D19A3
:10341000280000F0F3FD3F28ECD90020F178FFF7F9
:1034200097FE0028E6D0280000F0E8FDF1783F285C
:1034300007D9074BE201D21800204023FFF7B0FE66
:10344000D8E70020FFF798FED4E7C046C01300205D
:103450003C13002010B50400FFF788F9002801D1C3
:10346000002010BDFFF78AF90028F9D1C822624375
:10347000024B01309B181B791840F2E7C013002063
:10348000C82310B543430248181800F099FD10BD39
:10349000D0130020F8B5C824802344431C4F1034B7
:1034A00005003C195B029A4200D31A4A200092B2EE
:1034B00000F008FE0600FFF759F9002801D130009E
:1034C000F8BDFFF75BF90028F9D1C8236B43FF185B
:1034D000FB78002BF3D0200000F090FD3F28EED9C0
:1034E0000020F978FFF734FE0028E8D0200000F033
:1034F00085FDF9783F2807D9074BEA01D21800204B
:103500004023FFF74DFEDAE70020FFF735FED6E750
:10351000C0130020FFFF00003C130020F8B504009A
:10352000FFF724F9002801D10020F8BDFFF726F9A4
:103530000028F9D1C82565432E00134F2436F6190B
:10354000300000F03DFD0028EED07F190020B97852
:10355000FFF7FEFD0028E7D00C4DE40165192900B6
:103560004022300000F0AEFDB978041E08D0030000
:103570002A000020FFF714FE0028D5D02000D4E751
:103580000020FFF7F9FDCFE7C01300207C130020D7
:1035900070B5C82444430C4B0500E41880235B023B
:1035A0009A4200D3094A200092B200F051FE060070
:1035B000200000F005FD3F2801D8300070BD280034
:1035C000FFF7ACFFF9E7C046E4130020FFFF00005F
:1035D000C82310B543430248181800F00FFD10BD72
:1035E000E4130020F0B50025184C83B0C822002158
:1035F0002000FEF7A9F9164B21001D70FF2363710F
:10360000E1235B02A360200008234022A37338312A
:103610000095073B103000F09DFC2700012321009E
:1036200020002600402278310093B837243000F083
:1036300091FCC0363800FDF723F93000FDF720F982
:10364000E56127622663656303B0F0BDC013002007
:10365000BC1300200A4A116B136A00290CD0002BFE
:1036600007D00023D3615363136300231362012047
:10367000704753631363FAE7002BF8D0D161F4E786
:10368000C013002070B50F4C052200212000FEF76A
:103690005BF90D4D2B78DA0707D50C4C9B070CD541
:1036A0000121200000F0B0FE70BD2000103000F0BD
:1036B0008BFE2B78054C9B07F2D4200000F084FE93
:1036C000EEE7C046C0130020BC130020E413002026
:1036D000F0B54B79060083B0022B02D18B79022B17
:1036E00003D00025280003B0F0BD204FBB78002B8D
:1036F000F7D18B7809253B700C780C196378242B53
:1037000007D00CE02378E4185D196378ADB2242B60
:1037100005D19542F6D90020FFF766FEE2E71A00D0
:10372000052B15D0042AF6D163790A2BF3D1104B5F
:10373000277801930133009330000223E119023A04
:10374000FFF79EFC0028CCD00E35ED19ADB2E2E7B4
:1037500021003000FFF7E2FC0028C2D0A3787B7084
:1037600023785D19E4186278ADB2DBE7C01300205E
:10377000C2130020F8B5602314001278050013402E
:103780000020202B07D1304A6379277916781B0255
:103790003B439E4200D0F8BD6378222B1AD007D855
:1037A000202B34D0212BF6D101293ED00120F2E785
:1037B000232BF0D1012940D00329F7D1234B002B33
:1037C000F4D0E178A37809020020194300E000BF9B
:1037D0000120E0E7012930D00329E7D101252E009F
:1037E000A378E478023924021C4314712640243261
:1037F0001000714000F008FE154B002BD6D0620877
:10380000002031002A4000E000BF0120C3E7012969
:103810000BD00329CAD10F4B002BC7D00832002090
:103820001100FEF7A7FA0120B5E7072321002800C1
:10383000094AFFF7F1FC0120ADE721002800FFF75E
:10384000D5FC0120A7E7C046C013002000000000FF
:1038500000000000751D0010C8130020F0B54F4691
:103860004646D646C0B5364D8046EA780C001F0065
:103870008A423CD0AB788B4210D00020E0BCBA46E4
:10388000B146A846F0BD2F4B002B04D02E4800F0C7
:10389000ADFB002851D00020FFF7A6FDAB78A34276
:1038A00001D00120EAE7294B002B02D0002000E0E4
:1038B00000BF0020FFF732FE0028F2D1244C200088
:1038C00000F07EFB0028ECD1002FEAD0BF06E8D143
:1038D000243C4046A178FFF73BFC0028E1D00023C0
:1038E00000224046A178FFF75BFC0120C6E79AB2B0
:1038F00010239A46174EAA443100504600F0A8FC07
:10390000154B002BBFD06B79FF2BBCD0002FBAD04A
:10391000F219914603E001364E45B4D06B79327806
:103920009A42F8D1504600F061FB0028F3D153468B
:10393000103B597900E000BFEDE700E000BFAAE7C7
:10394000C013002000000000D01300200000000081
:10395000E41300203C130020000000009322F0B587
:10396000134C85B0002120009200FDF7EDFF2300ED
:103970002000802640270F4D4D337600FF3329303D
:103980000295009300220023002103970196FF3047
:1039900000F0D4F94035201D2834002301220021F5
:1039A000039702950196009400F0C8F905B0F0BDA8
:1039B000841600200416002010B5054C200000F0ED
:1039C000F3F920002538FF3800F0EEF9012010BD92
:1039D000AC17002070B5084C002520003130FF30B6
:1039E000257000F0F1FC20000C3000F0EDFC2A23E3
:1039F000FF33E554657170BD84160020F8B5574655
:103A00004546DE464E46E0B54B7980460F00FF2B1B
:103A10005BD1404B99462A234946FF33CB5C002BB0
:103A200053D14E79002E50D1BB783C780B703B7946
:103A30003C19002B46D098235B004B449A460C233C
:103A40004B449B46A51803E0AC423BD22378E418D4
:103A50006378052BF8D1AC4234D221004046FFF701
:103A60005DFB002831D0A3780136F6B2DB09012BCB
:103A700032D0504600F0A8FC2A234946A278FF33F2
:103A8000CA54637922791B021343234A5B05944687
:103A90005B0D942163445A4253414A460220490037
:103AA000525C5B00824313434A465354514640469E
:103AB000083900F0E3F9002807D02378E4183B79AF
:103AC000B342C5D8E01B80B200E00020F0BCBB468A
:103AD000B246A946A046F8BD584600F075FC5A46C5
:103AE000A3780C3A5371637921791B020B430A497D
:103AF0005B058C465B0D634459424B4102201179B2
:103B00005B0081430B43594600200839137100F0D4
:103B100081F9D2E78416002000FEFFFFF8B52A25C0
:103B200006001F48FF35455D1F008D4215D04379C3
:103B30008B4201D00020F8BD1A4B002B04D0390471
:103B40000020090C00E000BF174C3000210000F0FD
:103B500061F900281DD00120EDE79A235B00C35ACC
:103B6000002B0DD1114B002B04D000201049BAB20C
:103B700000E000BF30000F4900F080F90120DAE7D3
:103B800096235B00C1583130BAB2FF3000F060FBC1
:103B9000E8E73A002100300000F008F90120CAE708
:103BA000841600200000000088160020000000009D
:103BB00004160020AC17002000B5030083B00029D4
:103BC00010D00020012B07D80A78002A04D00C4816
:103BD000C2540120012A01D003B000BD1800FEF735
:103BE000D5FDF9E701236A46002001A99380FEF77D
:103BF000CDFD0028F0D00122014B1A70ECE7C04641
:103C0000DC140020037870B5DB0704000E00DD0F24
:103C1000002B17D103785B0701D5280070BD012167
:103C20003000494200F06CFC2378DB07DD0F002BED
:103C30000AD123785B0708D4042223780125134393
:103C4000237002E00025E8E70025300000F038FC92
:103C5000E3E7C04670B50C00012106004942200090
:103C600000F04EFC33785B07DD0F002B04DB2000F7
:103C700000F026FC280070BD3378DB0704D4042252
:103C8000337893433370F2E70025F0E74379027904
:103C90001B021343C2785B0592075B0D920F022A49
:103CA0001DD0032A0CD00020012A08D102394A4233
:103CB0005141124A9446614499424041C0B2704712
:103CC00002394A1E91410E4A494211408022D200D7
:103CD00094460020614499424041C0B2EFE7022976
:103CE00005D0002040229A424041C0B2E7E7054A91
:103CF000981843425841C0B2E1E7C046FF030000B4
:103D000040FCFFFF00FEFFFF8A1870B5914207D20A
:103D10007F264C78052C04D00C7809198A42F8D8F3
:103D200070BD34008D782C4064000419ED09635592
:103D30000C7809198A42ECD8F2E7C046F0B5C646BD
:103D400000B582B0150008AA40CA040017886A4668
:103D5000928D012090460A00217802408143200084
:103D6000114321703A00009331000123083000F024
:103D7000F1F8002E01D0002F08D10A9B01206360CA
:103D80004346638002B080BCB846F0BD26001C36B6
:103D90003000FCF775FD0023002D01D03300002614
:103DA0006361A661E9E7C04601207047F8B50224C7
:103DB0000B7807001C4063425C41144B64421C407A
:103DC000134B08009C4608300D001600644400F0B8
:103DD000F7F8002807D1002E05D0344203D1012482
:103DE0002B781C4201D00020F8BD38006978FFF71D
:103DF000AFF90028F7D02B781C42F4D10023002221
:103E000038006978FFF7CCF9EEE7C04640FEFFFFC7
:103E1000FF010000F8B50D000835060028000C0071
:103E200000F0CEF8002803D0012723781F4201D0EC
:103E30000020F8BD30006178FFF78AF90028F7D03C
:103E400028006288616800F03DF9237805001F4072
:103E500000280BD0002FEBD103006268300061789E
:103E6000FFF79EF90028E3D02800E2E7002FDFD11A
:103E700030006178FFF780F9DAE7C046F8B5CE4642
:103E8000474680B58A8906000C000B78002A07D1C6
:103E900001251D4240D00020C0BCB946B046F8BD47
:103EA0009B0733D42A4B4025994627000837380012
:103EB00000F0A4F88542EED80122237890461A42F9
:103EC000E9D130006178FFF743F90028E3D03800EA
:103ED00000F094F8424623781A40854231D8002AEF
:103EE000D9D14A46638802401D1C934200D9151C53
:103EF000ADB200226178002D00D062682B00300046
:103F0000FFF74EF90028C6D02800C5E7FE2380251C
:103F10001B029946AD00C8E74978FFF719F9002858
:103F2000B9D023781D42B6D1638800226178002B76
:103F300000D062683000FFF733F90028ABD060880A
:103F4000AAE7002AA7D130006178FFF715F9A2E7A8
:103F5000C0FF0000F0B5C64600B504006846057E07
:103F60008020884617001E000002824226D8E068A2
:103F7000002803D00121494200F0C2FA206900283C
:103F800003D00121494200F0BBFA43462360730489
:103F90005B0CED031D430023E0686381A780E5808F
:103FA0002381002801D000F08BFA2069002801D07D
:103FB00000F086FA012080BCB846F0BD0020FAE788
:103FC00010B5048941898288A3B288B28C4207D394
:103FD0001B1A9BB2101C9A4200D9181C80B210BD4B
:103FE0005100091A5B189BB2F4E7C0460389408967
:103FF000181A43425841C0B27047C04610B50489F0
:1040000041898288A3B288B28C4207D31B1A9BB223
:1040100000209A4201D9D21A90B210BD5100091A5B
:104020005B189BB2F4E7C04670B5040000690E004F
:10403000002803D00121494200F062FA25896089F5
:10404000A288A9B283B2854232D3CD1AADB2002D77
:1040500028D0AA4208D291422FD3891A8BB2638109
:104060009A4203D89B1A9BB29A42FBD9E2882168F4
:104070005204520C53433000C918FDF76BFC63899E
:104080000125591C89B2A2888B420DD9002152000A
:10409000891A89B220696181002801D000F010FAE4
:1040A000280070BD618989B252009142F2DBEFE7CE
:1040B0005500ED1A4D19ADB2C9E789188BB263816D
:1040C000CEE7C046F0B546464F46D646C0B50600D8
:1040D000006989469046002803D00121494200F03A
:1040E0000FFA31897289B5888BB294B2914254D358
:1040F0001F1BBFB2002F4AD0BD4205D2AB4251D2E6
:104100005B199CB22F0074814346B8453DD89FB2DD
:10411000A54203D8641BA4B2A542FBD9F28831683A
:104120005204520C904662432B1B9BB289184246A4
:104130009F4225D953439BB21A0048469A46FDF741
:1041400009FC434648467D1B64195C433168504472
:10415000A2B2FDF7FFFB7189B588CB199BB26A004B
:10416000994216D99B1A9BB230697381002801D0FD
:1041700000F0A6F93800E0BCBA46B146A846F0BD4A
:1041800048467A43FDF7E6FBE5E73B1CBFE773894A
:104190009BB26A009342E7DBE4E76F003F1BDF1945
:1041A000BFB2A7E75B1B9CB2ACE7C046F8B5040002
:1041B000C0680E00002803D00121494200F0A0F998
:1041C000258920896189A288ADB283B28FB28842E5
:1041D00029D3DB1B9BB29A4209D8E779FF0906D1A4
:1041E000E068002801D000F06BF93800F8BD2B0022
:1041F00095421DD39B1A9BB29342FBD2E288206862
:104200005204520C53433100C018FDF7A3FB6B1C42
:104210009BB2A2889D4217D9002352009B1A9BB2E1
:1042200001272381DCE75100C91B5B189BB2D2E751
:10423000E28820685204520C53433100C018FDF745
:1042400089FB0135A288ABB252009342E8DBE5E777
:10425000F0B54E465746DE464546E0B5894606006F
:10426000170083B0002A67D0C068002803D001215E
:10427000494200F045F93389F2799BB29846738937
:10428000B5889BB2D20940D198455ED26A00D31A54
:1042900043449BB2AB425DD2EB1A1A1C9BB2BB42A9
:1042A00000D93A1C97B27B1B9BB20193F3885B0445
:1042B0005B0C9A464346DB199BB29B464446A84595
:1042C00003D3641BA4B2AC42FBD2534663433068B1
:1042D0002D1BADB2C018BD424BD3524649467A435E
:1042E000FDF738FBB3885B00D84501D89B4503DB5D
:1042F0005A46D31A9BB29B465B463D003381F06819
:1043000000281AD000F0DCF817E0F2885204520CB2
:104310009246AF4220D298454DD34246D21A92B22D
:104320006900781B80B2D21901908A4233DA434681
:10433000FB189BB29B46C1E70025280003B0F0BCE8
:10434000BB46B246A946A046F0BD4246D31A9BB230
:10435000AB42A1D30025D2E7002DD0D07F1B57431D
:1043600098465A19002392B2B94493462F000193FC
:10437000A4E753465D43ADB22A004946FDF7EAFA89
:10438000019B2900E21853465A43306892B24944CF
:10439000FDF7E0FAA6E75A1992B29346D21B92B201
:1043A000904693420CD94346591A8BB29846FB1853
:1043B0009BB29B4682E76900CA1A424492B2B0E7B8
:1043C000914200DD7AE7EEE710B50400C0680028EE
:1043D00003D00121494200F093F82069002803D05E
:1043E0000121494200F08CF80023E06863812381B9
:1043F000002801D000F064F82069002801D000F006
:104400005FF8012010BDC04670B50400C0680D0003
:10441000002803D00121494200F072F820690028E9
:1044200003D00121494200F06BF87F21E379ED01CF
:104430001940E0682943E171002801D000F040F8FC
:104440002069002801D000F03BF8012070BDC04673
:1044500010B583070AD00300032102E001330B42A9
:1044600005D01A78002AF9D1181A10BD030019686E
:104470000C4A0D4C8A188A4322420FD15968094AC6
:1044800004338A188A43224208D15968054A043302
:104490008A188A432242F1D000E001331A78002AB8
:1044A000FBD1E1E7FFFEFEFE80808080F8B5C046CC
:1044B00001B40248844601BC604700BF01030020EC
:1044C00001B40248844601BC604700BF25020020B9
:1044D00001B40248844601BC604700BF3D0400208F
:1044E00001B40248844601BC604700BF5D0F002054
:1044F00001B40248844601BC604700BFC1000020EF
:1045000001B40248844601BC604700BF9901002005
:1045100001B40248844601BC604700BF010100208D
:1045200001B40248844601BC604700BF410C002032
:1045300001B40248844601BC604700BFD10C002092
:1045400001B40248844601BC604700BF810C0020D2
:1045500001B40248844601BC604700BF190C00202A
:104560005915001085150010691700103919001031
:10457000D1170010DD18001091160010A1150010C1
:10458000C1150010D515001031080010DD15001000
:10459000FD0B0010211500106504001045220010CD
:0445A000B102001054
:1045A400414C4956450000000A2A2A2A2050414E0F
:1045B4004943202A2A2A0A000A0000004E6F207369
:1045C40070696E6C6F636B732061726520617661D4
:1045D400696C61626C6500004E6F207573657220B2
:1045E400495251732061726520617661696C616220
:1045F4006C650000486172647761726520616C616A
:10460400726D20256420616C726561647920636C2D
:1046140061696D65640000004861726420617373B0
:10462400657274006D697373696E6720646F756277
:104634006C652066756E6374696F6E0052656C6597
:1046440061736500626F6F74325F77323571303831
:1046540030000000302E3100322E322E30000000A7
:104664007069636F5F770000726F7665725F7700C1
:1046740044656320333120323032350055534220B3
:10468400737464696E202F207374646F75740000F2
:104694005261737062657272792050690000000083
:1046A4005069636F00000000426F617264204344EC
:1046B400430000005265736574000000556E686124
:1046C4006E646C65642049525120307825780A0064
:1046D400657020253032582077617320616C7265D3
:1046E40061647920617661696C61626C65000000C7
:1046F40043616E277420636F6E74696E75652078EC
:10470400666572206F6E20696E61637469766520D8
:10471400657020253032580006005250D3F075429F
:104724004046001006005250E182887F484600103F
:10473400060052503ABCA9115846001006005250C7
:10474400ABB360535C46001006005250BBFF3CB64E
:104754006446001006005250861C03026C4600108A
:10476400060052505422A29D744600100500525077
:10477400DE65F468F45900100D0A00000000000022
:104784009D1C001000000000A11C0010AD1C0010B6
:10479400D91C0010D51C0010000000000A00000005
:1047A40000000306A6000800020002009C0014009A
:1047B400030057494E55534200000000000000001A
:1047C4000000800004000100280044006500760019
:1047D40069006300650049006E00740065007200A2
:1047E400660061006300650047005500490044000D
:1047F40000004E007B006200630037003300390084
:104804003800630031002D0037003300630064007A
:104814002D0034006300620037002D003900380099
:10482400620038002D003900310033006100380087
:1048340066006300610037006200660036007D0098
:1048440000000000050F2100011C100500DF60DDE1
:10485400D88945C74C9CD2659D9E648A9F000003FD
:1048640006A60001000000000600525053B4F4A153
:10487400804600100000000094460010A44600107A
:10488400901F0020AC460010B846001009025400E6
:10489400030100807D080B000202020000090400ED
:1048A4000001020200040524002001052401000186
:1048B40004240206052406000107058103080010EC
:1048C40009040100020A000000070502024000007A
:1048D400070582024000000904020000FF000105F0
:1048E40012011002EF0201408A2E0A0000010102A7
:1048F40003010000AC280010142A0010642A0010E0
:10490400EC290010FE290010DC2900104C290010AD
:10491400F8280010EC280010CE2D0010B42D001043
:10492400842B0010EE2D0010842B00109C2D001001
:10493400882D0010842B0010742D00107A2C001088
:10494400842B00105A3000104C30001040300010FE
:10495400842B0010842B00102A3000104C300010DF
:10496400842B0010842B0010842B0010842B001047
:10497400842B0010842B0010842B0010E02F0010D7
:104984009E0D00209E0D0020E80D0020080E002042
:104994004C0E00205E0E0020940D0020000000004C
:1049A400E53500105536001085360010D13600105C
:1049B400753700105D380010000000000000000092
:1049C4005D390010B9390010D5390010FD390010D7
:0C49D400351D00101D3B0010000000000D
:1049E0001C470010284700103447001040470010B3
:1049F0004C470010584700106447001070470010E3
:044A00006C480010EE
:104A040003000068EFF3108C72B60268002AFCD031
:104A1400BFF35F8F04229A56002A0BDB002900D0D3
:104A24000A6000201B68BFF35F8F00221A608CF3BA
:104A340010887047D0221206126801201A71F1E71B
:104A4400F0B5C646150000B504001E000268EFF379
:104A5400108172B61368002BFCD0BFF35F8F042360
:104A6400E3562268002B2BDBBFF35F8F002010601E
:104A740081F31088D02212061278002752B2904691
:104A84009A420ED1002080BCB846F0BDBFF35F8FC0
:104A9400176081F310882800310000F029FF0028F6
:104AA400F0D12268EFF3108172B61368002BFCD0AA
:104AB400BFF35F8F237922687F2BE7D9434602E057
:104AC400D0231B061B682371BFF35F8F0023136081
:104AD40081F310880120D6E7F0B5C64600B50D0075
:104AE400040000F0F5FEFA2206000F00002328005F
:104AF4000021920000F0D4FE36184F41002F02DA54
:104B04000126174F7642D0231B061B6800259846C2
:104B14000AE0BFF35F8F156081F31088300039001D
:104B240000F0E6FE002818D12268EFF3108172B677
:104B34001368002BFCD0BFF35F8F237922687F2B8F
:104B4400E7D943462371BFF35F8F0023136081F3DA
:104B54001088012080BCB846F0BD0020FAE7C046AA
:104B6400FFFFFF7F0268EFF3108172B61368002B1A
:104B7400FCD0BFF35F8FFF2303710368BFF35F8F24
:104B840000221A6081F3108840BF704710B5084CAA
:104B94002378002B0AD18023064807495B051A684D
:104BA400C25004338B42FAD10123237010BDC04696
:104BB400A41F0020D01800100001001010B5014BF4
:104BC400984710BDD1180020064B5A6802609A68B5
:104BD4004260DA6882601A69C2605A6902619B693C
:104BE40043617047000002400268064B5A60426805
:104BF4009A608268DA60C2681A6102695A6142691D
:104C04009A61704700000240034B1A68C0239B005E
:104C14009343024A136070470C8001400C9001409A
:104C2400054B1A6880239B005340C0229200134016
:104C3400024A13607047C0460C8001400C9001404A
:104C44000023F0B5DE4657464E4645469A46E0B543
:104C540089B001900E00988A45491B8B140098472F
:104C6400534681464349988A1B8B98475346424989
:104C74000500988A1B8B98478046FFF787FF02A898
:104C8400FFF7A2FFC847A847FFF7CAFF251E22D097
:104C94000823C0219C460220490562468B6A1A40BB
:104CA40018423FD0631B002D2FD1002A11D1002CB4
:104CB40011D0C0235B059B4602239A4606339946CE
:104CC4005B464A4657469B6A1A401F4242D0002A16
:104CD400F6D0002C30D1FFF797FFC047FFF76EFFE7
:104CE40002A8FFF781FF09B0F0BCBB46B246A94653
:104CF400A046F0BD002C2FD1C0225205926A9146E5
:104D040008224F463A40BF072DD50D2B1BD9002A48
:104D1400F0D1C0225205926A914608224F463A4089
:104D2400BF07F2D4002A04D12B002343002BB4D1B3
:104D3400D1E72B00002CF9D00B6E013C337023001B
:104D440001362B43F2E7019F013D3B7801370B66A7
:104D54000197E7E70025E5E7C0235B051B6E013CEF
:104D64003370013699E72B00002ADFD1DCE7C04617
:104D74004946000045580000464300000022154BF8
:104D840010B59A60DA601A615A619A61DA611A623E
:104D94005A629A62DA621A635A639A63DA631A6429
:104DA4005A649A64DA641A655A659A65DA651A6609
:104DB4005A669A66DA661A675A679A67DA67F03249
:104DC40092000021044800F07BFD044B044A1A6061
:104DD40010BDC046000010507C1A0020441E002064
:104DE40080011050F0B54E464546DE465746E0B5C4
:104DF400214B00249E6D012585B0002E22D01F4B2F
:104E04009A46012399461E4B984601E0202C19D05E
:104E14002A00230001342F003240E4B26D00002A3E
:104E2400F4D0524697654A465B085B0022409B18C3
:104E34005B01434418009B4600F01EFC002808D187
:104E4400BE43E3D105B0F0BCBB46B246A946A0467A
:104E5400F0BD5B46E0219A78DB8A01A883600023D9
:104E6400C900018001210271437100F025FC5846FC
:104E740000F0A0FBE4E7C0460000115000301150E0
:104E84003C1A00209823F0B5C646C84A00B5D55848
:104E940080232E009B02102484B01E401D4274D037
:104EA400C34BC44C9A6AC44B00261A603B23E35C90
:104EB400022B00D14FE17B23E35C022B00D1F3E012
:104EC400BB23E35C022B00D1FAE0FB23E35C022B5F
:104ED40000D101E13C23FF33E35C022B00D12DE13F
:104EE4007C23FF33E35C022B00D10EE1BC23FF33B0
:104EF400E35C022B00D13FE1FC23FF33E35C022B94
:104F040000D1F5E0AD4BE35C022B00D174E1AC4B76
:104F1400E35C022B00D105E1AA4BE35C022B00D138
:104F240075E1A94BE35C022B00D132E1A74BE35CB2
:104F3400022B00D1A0E1A64BE35C022B00D171E16E
:104F4400A44BE35C022B00D1A1E1A34BE35C022B55
:104F540000D17FE1002E08D1A04B1B78002B04D197
:104F640080219F4A90338902D150C02269468F4BD9
:104F740092009B6C80265B058A805B0D012101A851
:104F8400029300F099FB974CB602EB0600D57FE044
:104F940080235B021D4231D01E4301230224984624
:104FA400844FBB7E002B14D000F082FC012800D972
:104FB40072E0C02200213800920100F001FB3800A9
:104FC40000F0F8FA00F074FC012802D9844B5C6606
:104FD4001C664346FB702037012C22D1C0236A464D
:104FE400DB009380804A02AB03CA03C3012101A8FA
:104FF40000F062FB80227A4B92021A6580235B01E7
:105004001D4210D18023DB011D4223D180231B02CA
:105014001D422FD1AE4200D0C0E104B080BCB846DE
:10502400F0BD0124BDE700241E43604B1C60FFF764
:10503400A5FE80236A465B0093801472012101A8B7
:1050440000F03AFB8022664B12031A658023DB01D1
:105054001D42DBD01E4380236A46DB00938001217E
:1050640001A800F029FB10225D4B1A6580231B0266
:105074001D42CFD01E43A0236A46DB00938001214A
:1050840001A800F019FB8022554B12011A65C1E7F3
:10509400FFF7A8FE26007BE7544B444A1C66536E78
:1050A4002340A342FBD184E77833E75C002F00D18F
:1050B40006E70233E25C002A00D00DE13E00FFE681
:1050C400B833E75C002F00D1FFE60233E25C002A2C
:1050D40000D0F9E03E00F8E6F833E75C002F00D199
:1050E400F8E60233E25C002A00D041E13E00F1E63A
:1050F400F933FF33E75C002F00D103E70233E25CAE
:10510400002A00D02BE13E00FCE67933FF33E75C54
:10511400002F00D1EAE60233E25C002A00D015E158
:105124003E00E3E6324BE75C002F00D1F4E60233A5
:10513400E25C002A00D001E13E00EDE63933FF33A2
:10514400E75C002F00D1CBE60233E25C002A00D0FA
:10515400EBE03E00C4E63833E65C002E00D1AAE65C
:105164000233E25C002A00D1A5E6200000222030B0
:10517400E25400F04DFA9EE6B933FF33E75C002FAA
:1051840000D1B9E60233E25C002A00D0C4E03E005C
:10519400B2E6184BE75C002F00D1C7E60233E25CAD
:1051A400002A00D0B0E03E00C0E6C0460000115026
:1051B400004005403C1A0020341A00203B02000045
:1051C4007B020000BB020000FB0200003B03000066
:1051D4007B030000BB030000FB030000A21F0020B0
:1051E4000030115010000200000010500020115037
:1051F4007A020000FA0200006B4BE75C002F00D13A
:1052040085E60233E25C002A76D13E007FE6674BF6
:10521400E75C002F00D184E60233E25C002A63D10C
:105224003E007EE6624BE75C002F00D188E6023345
:10523400E25C002A00D0A3E05E4BE35C022B30D199
:105244005D4BE35C002B27D15C4BE35C022B00D06D
:105254008BE63E005A4BE35C002B00D17AE6FF2339
:105264009B00E25C002A00D17FE60022E2541C3B52
:10527400E01800F0CDF978E6524BE75C002F00D13E
:1052840059E60233E25C002A16D13E0053E64A4B4B
:10529400E35C002B00D158E6EF239B00E25C002A7C
:1052A40075D1464BE35C022B00D05EE6444BE35CD5
:1052B400002B00D159E6D2E70022E2541C3BE0184F
:1052C40000F0A6F93E0036E620000022A030E254A9
:1052D4003E0000F09DF9F8E5200000226030E25421
:1052E4003E0000F095F9EBE50022E2541C3BE01887
:1052F40000F08EF93E0014E60022E2541C3BE01854
:1053040000F086F93E0002E60022E2541C3BE0185D
:1053140000F07EF93E0009E620000022A130FF30B3
:10532400E2543E0000F074F9E6E52000002221304A
:10533400FF30E2543E0000F06BF9D1E50022E25464
:105344001C3BE01800F064F93E00E5E52000002273
:105354006130FF30E2543E0000F05AF9C6E5200007
:105364000022E130FF30E2543E0000F051F9C9E57B
:1053740020000022E030E2543E0000F049F9A9E5A3
:105384000022E2541C3BE01800F042F954E70022EA
:10539400E2541C3BE01800F03BF982E731000A4874
:1053A400694000F09DFAC0463A020000BA020000CB
:1053B4007A030000BB030000BA030000FB030000F3
:1053C400FA0300003A030000C0460010F0B5C646D8
:1053D40000B50200838A008B8C46011C984200D9D8
:1053E400191CD47880252000461EB04189B2ED00F6
:1053F4000D434003284301256C405B1AD470547854
:105404009BB29382002C31D16446D568A4014E1E10
:105414002D19B0461469002923D0062E32D92B0049
:1054240023439B072ED1631CEB1A022B2AD900239A
:105434008F08BF00E658EE5004339F42FAD143462A
:10544400ED19DB1BE419B94209D026782E70002B24
:1054540005D066786E70012B01D0A378AB70146907
:10546400938A64181461802212021043002B02D123
:105474008023DB0118436346002B00D0000480BC6A
:10548400B846F0BD0023E65CEE5401339942FAD1EC
:10549400E5E7C0468368F0B51A680400002900D027
:1054A400120C63789205900D002B08D1E38AC3187F
:1054B400E382238B834201D90023A382F0BDE368F6
:1054C400890125695E18471E002822D0062F26D997
:1054D40001315B18EB1A022B21D92B0033439B07B4
:1054E4001DD10023120E9200F158E95004339A4260
:1054F400FAD1BF1AAD18B618904209D032782A7082
:10550400002F05D072786A70012F01D0B278AA708A
:105514002569E38A2D18C318E3822561C9E70022AF
:10552400B35CAB5401329042FAD12569F1E7C0462D
:1055340010B50400836800211B68FFF7ABFF6368A4
:105544001B685B0002D5238B834200D010BD012170
:105554002000FFF79FFFF9E7084A0300126C0020C0
:10556400920703D49A78D209012A00D07047D87ED2
:10557400023843425841C0B2F8E7C0460000115017
:1055840010B5FFF7E9FF00280CD00749074B8C46FC
:10559400074A9B6A126863449B1A0020C6229A42F7
:1055A4004041C0B210BDC046E0FCFFFF00400540D2
:1055B400341A002000238376436103617047C04698
:1055C40010B58368002901D01C682140002A12D03C
:1055D4008024E400114322420DD01A6822420CD1E7
:1055E400084A0A401A60084A126C920703D40C2332
:1055F400033BFDD28368196010BD8178034800F035
:105604006FF9C046FFFBFFFF00001150D4460010A5
:10561400436870B50021802504001E68FFF7D6FE9C
:10562400124B6D011A6C0543A37892070ED55B06E5
:105634000ED00F4B1E4080239B053343626800212C
:10564400136020002A00FFF7BBFF70BDDB09F0D018
:10565400A38A002BEDD001212000FFF7B7FEA02381
:10566400044ADB05324005431343E7E700001150C9
:10567400FFFFFFAFFFFFFFDF70B5857E0400002D45
:1056840014D0FFF755FFA38A002B01D1280070BD69
:105694002000FFF775FF002803D00123002523779E
:1056A400F4E72000FFF7B4FF0025EFE78178014815
:1056B40000F016F9F4460010F0B5CE46474680B522
:1056C400437805000E0085B0062B08D86C4A9B0071
:1056D400D3589F466B4A13780133DBB213706A4B7D
:1056E4001C686269EFF3108172B61368002BFCD05A
:1056F400BFF35F8FA1612000290000F009F96269FE
:10570400A369BFF35F8F0021116083F31088002821
:1057140004D105B0C0BCB946B046F0BD32006978CA
:10572400287800F0EDF8F4E70121584B1A788A4301
:105734001A701A7801318A431A7000225A701A7842
:1057440002318A431A70CAE75149524F8946524975
:105754000024002388463A7812E043461B6861011E
:105764005B18002B06D0DB69002B03D0696828780E
:1057740098473A780134E4B2511C2300A14217DB64
:10578400A242EAD89B1A5B014B44ECE73F4B1A78E0
:10579400D207BED504211A780A431A709FE73B4BFF
:1057A4001A78D207B5D504211A788A431A7096E775
:1057B400364F3B785B072BD504223B78002193437B
:1057C4003B706B460632981D00F07AF82B7801ACDA
:1057D4002370052363702C4B1B6898465A69EFF3BA
:1057E400108172B61368002BFCD0BFF35F8F434661
:1057F40040469961210000F08BF843465A699B6941
:10580400BFF35F8F0021116083F31088002831D12A
:10581400FB78DB0700D47CE76B460A220021981D45
:1058240000F04EF82B7801AC2370032363706B688F
:105834006360154B1D686A69EFF3108172B61368D3
:10584400002BFCD0BFF35F8FA9612800210000F07A
:105854005FF86A69AB69BFF35F8F0021116083F35E
:105864001088002800D154E732006178207800F0D5
:1058740047F84EE732006178207800F041F8C7E736
:1058840084490010A31F002040150020E8140020C4
:10589400A0490010A11F0020381300207047C04603
:1058A40001B40248844601BC604700BF9D18001043
:1058B40001B40248844601BC604700BF05030010E0
:1058C40001B40248844601BC604700BF4919001076
:1058D40001B40248844601BC604700BF05110010B2
:1058E40001B40248844601BC604700BF11030010A4
:1058F40001B40248844601BC604700BFD50F0010C4
:1059040001B40248844601BC604700BF4D27001023
:1059140001B40248844601BC604700BFAD41001099
:105924001000000000000000000001000000000062
:105934000000000000000200000000000000000061
:105944000000030000000000000000000000FF0051
:105954000000000001B5486801318E4600477046DA
:1059640009380149884701BD4107001000000000C3
:105974000000000000000000000000000000000023
:10598400B010002000000000000000000000000033
:10599400503300004C3300005433000052330000F5
:1059A4004D5300004D4300005334000043340000C5
:1059B400011F0010B51E0010291E0010A11D0010AB
:1059C40000000000000100004415002010000C003D
:1059D40000000000000000000000000000000000C3
:1059E40000000000FF0000000000000000000000B4
:04000005100001E9FD
:00000001FF
